{"contracts/TradingPair.sol":{"TradingPair":{"abi":[{"inputs":[{"internalType":"address","name":"tokenA","type":"address"},{"internalType":"address","name":"tokenB","type":"address"}],"stateMutability":"nonpayable","type":"constructor"},{"inputs":[{"internalType":"address","name":"spender","type":"address"},{"internalType":"uint256","name":"allowance","type":"uint256"},{"internalType":"uint256","name":"needed","type":"uint256"}],"name":"ERC20InsufficientAllowance","type":"error"},{"inputs":[{"internalType":"address","name":"sender","type":"address"},{"internalType":"uint256","name":"balance","type":"uint256"},{"internalType":"uint256","name":"needed","type":"uint256"}],"name":"ERC20InsufficientBalance","type":"error"},{"inputs":[{"internalType":"address","name":"approver","type":"address"}],"name":"ERC20InvalidApprover","type":"error"},{"inputs":[{"internalType":"address","name":"receiver","type":"address"}],"name":"ERC20InvalidReceiver","type":"error"},{"inputs":[{"internalType":"address","name":"sender","type":"address"}],"name":"ERC20InvalidSender","type":"error"},{"inputs":[{"internalType":"address","name":"spender","type":"address"}],"name":"ERC20InvalidSpender","type":"error"},{"anonymous":false,"inputs":[{"indexed":true,"internalType":"address","name":"owner","type":"address"},{"indexed":true,"internalType":"address","name":"spender","type":"address"},{"indexed":false,"internalType":"uint256","name":"value","type":"uint256"}],"name":"Approval","type":"event"},{"anonymous":false,"inputs":[{"indexed":false,"internalType":"uint256","name":"amountA","type":"uint256"},{"indexed":false,"internalType":"uint256","name":"amountB","type":"uint256"}],"name":"LiquidityAddded","type":"event"},{"anonymous":false,"inputs":[{"indexed":false,"internalType":"uint256","name":"amountA","type":"uint256"},{"indexed":false,"internalType":"uint256","name":"amountB","type":"uint256"}],"name":"LiquidityWithdrawn","type":"event"},{"anonymous":false,"inputs":[{"indexed":false,"internalType":"address","name":"tokenSwapped","type":"address"},{"indexed":false,"internalType":"address","name":"tokenObtained","type":"address"},{"indexed":false,"internalType":"uint256","name":"amountSwapped","type":"uint256"},{"indexed":false,"internalType":"uint256","name":"amountObtained","type":"uint256"}],"name":"Swap","type":"event"},{"anonymous":false,"inputs":[{"indexed":true,"internalType":"address","name":"from","type":"address"},{"indexed":true,"internalType":"address","name":"to","type":"address"},{"indexed":false,"internalType":"uint256","name":"value","type":"uint256"}],"name":"Transfer","type":"event"},{"inputs":[],"name":"_tokenA","outputs":[{"internalType":"address","name":"","type":"address"}],"stateMutability":"view","type":"function"},{"inputs":[],"name":"_tokenB","outputs":[{"internalType":"address","name":"","type":"address"}],"stateMutability":"view","type":"function"},{"inputs":[{"internalType":"uint256","name":"amountA","type":"uint256"},{"internalType":"uint256","name":"amountB","type":"uint256"}],"name":"addLiquidity","outputs":[],"stateMutability":"nonpayable","type":"function"},{"inputs":[{"internalType":"address","name":"owner","type":"address"},{"internalType":"address","name":"spender","type":"address"}],"name":"allowance","outputs":[{"internalType":"uint256","name":"","type":"uint256"}],"stateMutability":"view","type":"function"},{"inputs":[{"internalType":"address","name":"spender","type":"address"},{"internalType":"uint256","name":"value","type":"uint256"}],"name":"approve","outputs":[{"internalType":"bool","name":"","type":"bool"}],"stateMutability":"nonpayable","type":"function"},{"inputs":[{"internalType":"address","name":"account","type":"address"}],"name":"balanceOf","outputs":[{"internalType":"uint256","name":"","type":"uint256"}],"stateMutability":"view","type":"function"},{"inputs":[{"internalType":"uint256","name":"amountB","type":"uint256"}],"name":"calculateTokenAEquivalent","outputs":[{"internalType":"uint256","name":"","type":"uint256"}],"stateMutability":"view","type":"function"},{"inputs":[{"internalType":"uint256","name":"amountA","type":"uint256"}],"name":"calculateTokenBEquivalent","outputs":[{"internalType":"uint256","name":"","type":"uint256"}],"stateMutability":"view","type":"function"},{"inputs":[],"name":"decimals","outputs":[{"internalType":"uint8","name":"","type":"uint8"}],"stateMutability":"view","type":"function"},{"inputs":[],"name":"getBalances","outputs":[{"internalType":"uint256","name":"","type":"uint256"},{"internalType":"uint256","name":"","type":"uint256"}],"stateMutability":"view","type":"function"},{"inputs":[],"name":"getK","outputs":[{"internalType":"uint256","name":"","type":"uint256"}],"stateMutability":"view","type":"function"},{"inputs":[],"name":"getReserves","outputs":[{"internalType":"uint256","name":"","type":"uint256"},{"internalType":"uint256","name":"","type":"uint256"}],"stateMutability":"view","type":"function"},{"inputs":[],"name":"getTokenA","outputs":[{"internalType":"address","name":"","type":"address"}],"stateMutability":"view","type":"function"},{"inputs":[],"name":"getTokenB","outputs":[{"internalType":"address","name":"","type":"address"}],"stateMutability":"view","type":"function"},{"inputs":[],"name":"name","outputs":[{"internalType":"string","name":"","type":"string"}],"stateMutability":"view","type":"function"},{"inputs":[{"internalType":"uint256","name":"tokenAAmount","type":"uint256"},{"internalType":"uint256","name":"tokenBAmount","type":"uint256"}],"name":"swap","outputs":[],"stateMutability":"nonpayable","type":"function"},{"inputs":[],"name":"symbol","outputs":[{"internalType":"string","name":"","type":"string"}],"stateMutability":"view","type":"function"},{"inputs":[],"name":"totalSupply","outputs":[{"internalType":"uint256","name":"","type":"uint256"}],"stateMutability":"view","type":"function"},{"inputs":[{"internalType":"address","name":"to","type":"address"},{"internalType":"uint256","name":"value","type":"uint256"}],"name":"transfer","outputs":[{"internalType":"bool","name":"","type":"bool"}],"stateMutability":"nonpayable","type":"function"},{"inputs":[{"internalType":"address","name":"from","type":"address"},{"internalType":"address","name":"to","type":"address"},{"internalType":"uint256","name":"value","type":"uint256"}],"name":"transferFrom","outputs":[{"internalType":"bool","name":"","type":"bool"}],"stateMutability":"nonpayable","type":"function"},{"inputs":[{"internalType":"uint256","name":"amountA","type":"uint256"},{"internalType":"uint256","name":"amountB","type":"uint256"}],"name":"withdraw","outputs":[],"stateMutability":"nonpayable","type":"function"}],"evm":{"bytecode":{"linkReferences":{},"object":"60c0604052600060055560006006553480156200001b57600080fd5b50604051620030bc380380620030bc8339818101604052810190620000419190620001ad565b6040518060400160405280601681526020017f4c6961646578204c697175696469747920546f6b656e000000000000000000008152506040518060400160405280600381526020017f4c4c5400000000000000000000000000000000000000000000000000000000008152508160039081620000be91906200046e565b508060049081620000d091906200046e565b5050508173ffffffffffffffffffffffffffffffffffffffff1660808173ffffffffffffffffffffffffffffffffffffffff16815250508073ffffffffffffffffffffffffffffffffffffffff1660a08173ffffffffffffffffffffffffffffffffffffffff1681525050505062000555565b600080fd5b600073ffffffffffffffffffffffffffffffffffffffff82169050919050565b6000620001758262000148565b9050919050565b620001878162000168565b81146200019357600080fd5b50565b600081519050620001a7816200017c565b92915050565b60008060408385031215620001c757620001c662000143565b5b6000620001d78582860162000196565b9250506020620001ea8582860162000196565b9150509250929050565b600081519050919050565b7f4e487b7100000000000000000000000000000000000000000000000000000000600052604160045260246000fd5b7f4e487b7100000000000000000000000000000000000000000000000000000000600052602260045260246000fd5b600060028204905060018216806200027657607f821691505b6020821081036200028c576200028b6200022e565b5b50919050565b60008190508160005260206000209050919050565b60006020601f8301049050919050565b600082821b905092915050565b600060088302620002f67fffffffffffffffffffffffffffffffffffffffffffffffffffffffffffffffff82620002b7565b620003028683620002b7565b95508019841693508086168417925050509392505050565b6000819050919050565b6000819050919050565b60006200034f6200034962000343846200031a565b62000324565b6200031a565b9050919050565b6000819050919050565b6200036b836200032e565b620003836200037a8262000356565b848454620002c4565b825550505050565b600090565b6200039a6200038b565b620003a781848462000360565b505050565b5b81811015620003cf57620003c360008262000390565b600181019050620003ad565b5050565b601f8211156200041e57620003e88162000292565b620003f384620002a7565b8101602085101562000403578190505b6200041b6200041285620002a7565b830182620003ac565b50505b505050565b600082821c905092915050565b6000620004436000198460080262000423565b1980831691505092915050565b60006200045e838362000430565b9150826002028217905092915050565b6200047982620001f4565b67ffffffffffffffff811115620004955762000494620001ff565b5b620004a182546200025d565b620004ae828285620003d3565b600060209050601f831160018114620004e65760008415620004d1578287015190505b620004dd858262000450565b8655506200054d565b601f198416620004f68662000292565b60005b828110156200052057848901518255600182019150602085019450602081019050620004f9565b868310156200054057848901516200053c601f89168262000430565b8355505b6001600288020188555050505b505050505050565b60805160a051612ab562000607600039600081816104ca0152818161056c0152818161068a015281816108be01528181610bb901528181610d8c015281816110b7015281816111a0015281816112620152818161140c015261184c0152600081816104300152818161081f01528181610b1801528181610ceb01528181610ed601528181610fd50152818161117f015281816113440152818161142d0152818161150001526117ae0152612ab56000f3fe608060405234801561001057600080fd5b50600436106101365760003560e01c8063441a3e70116100b8578063a9059cbb1161007c578063a9059cbb14610355578063ae0ba2fb14610385578063d96073cf146103a3578063dd62ed3e146103bf578063ee39e7a0146103ef578063f3c4469f1461040d57610136565b8063441a3e701461029f5780636391f7e1146102bb57806370a08231146102eb57806395d89b411461031b5780639cd441da1461033957610136565b806309c0abf5116100ff57806309c0abf5146101e55780630f0148ea1461021557806318160ddd1461023357806323b872dd14610251578063313ce5671461028157610136565b8062113e081461013b57806304ba7f291461015a57806306fdde03146101785780630902f1ac14610196578063095ea7b3146101b5575b600080fd5b61014361042b565b604051610151929190611e38565b60405180910390f35b61016261056a565b60405161016f9190611ea2565b60405180910390f35b61018061058e565b60405161018d9190611f4d565b60405180910390f35b61019e610620565b6040516101ac929190611e38565b60405180910390f35b6101cf60048036038101906101ca9190611fcc565b610631565b6040516101dc9190612027565b60405180910390f35b6101ff60048036038101906101fa9190612042565b610654565b60405161020c919061206f565b60405180910390f35b61021d610686565b60405161022a9190611ea2565b60405180910390f35b61023b6106ae565b604051610248919061206f565b60405180910390f35b61026b6004803603810190610266919061208a565b6106b8565b6040516102789190612027565b60405180910390f35b6102896106e7565b60405161029691906120f9565b60405180910390f35b6102b960048036038101906102b49190612114565b6106f0565b005b6102d560048036038101906102d09190612042565b6109ac565b6040516102e2919061206f565b60405180910390f35b61030560048036038101906103009190612154565b6109de565b604051610312919061206f565b60405180910390f35b610323610a26565b6040516103309190611f4d565b60405180910390f35b610353600480360381019061034e9190612114565b610ab8565b005b61036f600480360381019061036a9190611fcc565b610eaf565b60405161037c9190612027565b60405180910390f35b61038d610ed2565b60405161039a9190611ea2565b60405180910390f35b6103bd60048036038101906103b89190612114565b610efa565b005b6103d960048036038101906103d49190612181565b61146d565b6040516103e6919061206f565b60405180910390f35b6103f76114f4565b604051610404919061206f565b60405180910390f35b6104156114fe565b6040516104229190611ea2565b60405180910390f35b6000807f000000000000000000000000000000000000000000000000000000000000000073ffffffffffffffffffffffffffffffffffffffff166370a08231306040518263ffffffff1660e01b81526004016104879190611ea2565b602060405180830381865afa1580156104a4573d6000803e3d6000fd5b505050506040513d601f19601f820116820180604052508101906104c891906121d6565b7f000000000000000000000000000000000000000000000000000000000000000073ffffffffffffffffffffffffffffffffffffffff166370a08231306040518263ffffffff1660e01b81526004016105219190611ea2565b602060405180830381865afa15801561053e573d6000803e3d6000fd5b505050506040513d601f19601f8201168201806040525081019061056291906121d6565b915091509091565b7f000000000000000000000000000000000000000000000000000000000000000081565b60606003805461059d90612232565b80601f01602080910402602001604051908101604052809291908181526020018280546105c990612232565b80156106165780601f106105eb57610100808354040283529160200191610616565b820191906000526020600020905b8154815290600101906020018083116105f957829003601f168201915b5050505050905090565b600080600554600654915091509091565b60008061063c611522565b905061064981858561152a565b600191505092915050565b600061067f6006546106718460055461153c90919063ffffffff16565b6115b690919063ffffffff16565b9050919050565b60007f0000000000000000000000000000000000000000000000000000000000000000905090565b6000600254905090565b6000806106c3611522565b90506106d0858285611614565b6106db8585856116a8565b60019150509392505050565b60006012905090565b6000821180156107005750600081115b61073f576040517f08c379a0000000000000000000000000000000000000000000000000000000008152600401610736906122af565b60405180910390fd5b60008261074b83610654565b148061075e57508161075c846109ac565b145b9050806107a0576040517f08c379a000000000000000000000000000000000000000000000000000000000815260040161079790612341565b60405180910390fd5b60006107d06005546107c26107b36106ae565b8761153c90919063ffffffff16565b6115b690919063ffffffff16565b9050806107dc336109de565b101561081d576040517f08c379a0000000000000000000000000000000000000000000000000000000008152600401610814906123d3565b60405180910390fd5b7f000000000000000000000000000000000000000000000000000000000000000073ffffffffffffffffffffffffffffffffffffffff1663a9059cbb33866040518363ffffffff1660e01b81526004016108789291906123f3565b6020604051808303816000875af1158015610897573d6000803e3d6000fd5b505050506040513d601f19601f820116820180604052508101906108bb9190612448565b507f000000000000000000000000000000000000000000000000000000000000000073ffffffffffffffffffffffffffffffffffffffff1663a9059cbb33856040518363ffffffff1660e01b81526004016109179291906123f3565b6020604051808303816000875af1158015610936573d6000803e3d6000fd5b505050506040513d601f19601f8201168201806040525081019061095a9190612448565b50610965338261179c565b7ff3f4772b0ce29670f0f94b6bb2b4afed357a2ee57d34e31562426895e978f71e8484604051610996929190611e38565b60405180910390a16109a66117aa565b50505050565b60006109d76005546109c98460065461153c90919063ffffffff16565b6115b690919063ffffffff16565b9050919050565b60008060008373ffffffffffffffffffffffffffffffffffffffff1673ffffffffffffffffffffffffffffffffffffffff168152602001908152602001600020549050919050565b606060048054610a3590612232565b80601f0160208091040260200160405190810160405280929190818152602001828054610a6190612232565b8015610aae5780601f10610a8357610100808354040283529160200191610aae565b820191906000526020600020905b815481529060010190602001808311610a9157829003601f168201915b5050505050905090565b600082118015610ac85750600081115b610b07576040517f08c379a0000000000000000000000000000000000000000000000000000000008152600401610afe906124c1565b60405180910390fd5b6000610b116106ae565b03610c87577f000000000000000000000000000000000000000000000000000000000000000073ffffffffffffffffffffffffffffffffffffffff166323b872dd3330856040518463ffffffff1660e01b8152600401610b73939291906124e1565b6020604051808303816000875af1158015610b92573d6000803e3d6000fd5b505050506040513d601f19601f82011682018060405250810190610bb69190612448565b507f000000000000000000000000000000000000000000000000000000000000000073ffffffffffffffffffffffffffffffffffffffff166323b872dd3330846040518463ffffffff1660e01b8152600401610c14939291906124e1565b6020604051808303816000875af1158015610c33573d6000803e3d6000fd5b505050506040513d601f19601f82011682018060405250810190610c579190612448565b50610c8233610c646106e7565b600a610c70919061267a565b6103e8610c7d91906126c5565b611911565b610ea3565b600082610c9383610654565b148015610ca7575081610ca5846109ac565b145b905080610ce9576040517f08c379a0000000000000000000000000000000000000000000000000000000008152600401610ce090612779565b60405180910390fd5b7f000000000000000000000000000000000000000000000000000000000000000073ffffffffffffffffffffffffffffffffffffffff166323b872dd3330866040518463ffffffff1660e01b8152600401610d46939291906124e1565b6020604051808303816000875af1158015610d65573d6000803e3d6000fd5b505050506040513d601f19601f82011682018060405250810190610d899190612448565b507f000000000000000000000000000000000000000000000000000000000000000073ffffffffffffffffffffffffffffffffffffffff166323b872dd3330856040518463ffffffff1660e01b8152600401610de7939291906124e1565b6020604051808303816000875af1158015610e06573d6000803e3d6000fd5b505050506040513d601f19601f82011682018060405250810190610e2a9190612448565b506000610e5b600554610e4d610e3e6106ae565b8761153c90919063ffffffff16565b6115b690919063ffffffff16565b9050610e673382611911565b7fa3785c319657c7e30e3a27221716188508552382bf92aa9e6778d1190fdef7ed8484604051610e98929190611e38565b60405180910390a150505b610eab6117aa565b5050565b600080610eba611522565b9050610ec78185856116a8565b600191505092915050565b60007f0000000000000000000000000000000000000000000000000000000000000000905090565b60008211610f0b5760008111610f10565b600081145b610f4f576040517f08c379a0000000000000000000000000000000000000000000000000000000008152600401610f46906127e5565b60405180910390fd5b60008211156111dc576000610f8b6103e8610f7d6103e3610f6f876109ac565b61153c90919063ffffffff16565b6115b690919063ffffffff16565b90506006548110610fd1576040517f08c379a0000000000000000000000000000000000000000000000000000000008152600401610fc890612851565b60405180910390fd5b60007f000000000000000000000000000000000000000000000000000000000000000073ffffffffffffffffffffffffffffffffffffffff166323b872dd3330876040518463ffffffff1660e01b8152600401611030939291906124e1565b6020604051808303816000875af115801561104f573d6000803e3d6000fd5b505050506040513d601f19601f820116820180604052508101906110739190612448565b9050806110b5576040517f08c379a00000000000000000000000000000000000000000000000000000000081526004016110ac906127e5565b60405180910390fd5b7f000000000000000000000000000000000000000000000000000000000000000073ffffffffffffffffffffffffffffffffffffffff1663a9059cbb33846040518363ffffffff1660e01b81526004016111109291906123f3565b6020604051808303816000875af115801561112f573d6000803e3d6000fd5b505050506040513d601f19601f820116820180604052508101906111539190612448565b5061115c6117aa565b7ffa2dda1cc1b86e41239702756b13effbc1a092b5c57e3ad320fbe4f3b13fe2357f00000000000000000000000000000000000000000000000000000000000000007f000000000000000000000000000000000000000000000000000000000000000086856040516111d19493929190612871565b60405180910390a150505b60008111156114695760006112186103e861120a6103e36111fc86610654565b61153c90919063ffffffff16565b6115b690919063ffffffff16565b9050600554811061125e576040517f08c379a000000000000000000000000000000000000000000000000000000000815260040161125590612851565b60405180910390fd5b60007f000000000000000000000000000000000000000000000000000000000000000073ffffffffffffffffffffffffffffffffffffffff166323b872dd3330866040518463ffffffff1660e01b81526004016112bd939291906124e1565b6020604051808303816000875af11580156112dc573d6000803e3d6000fd5b505050506040513d601f19601f820116820180604052508101906113009190612448565b905080611342576040517f08c379a0000000000000000000000000000000000000000000000000000000008152600401611339906127e5565b60405180910390fd5b7f000000000000000000000000000000000000000000000000000000000000000073ffffffffffffffffffffffffffffffffffffffff1663a9059cbb33846040518363ffffffff1660e01b815260040161139d9291906123f3565b6020604051808303816000875af11580156113bc573d6000803e3d6000fd5b505050506040513d601f19601f820116820180604052508101906113e09190612448565b506113e96117aa565b7ffa2dda1cc1b86e41239702756b13effbc1a092b5c57e3ad320fbe4f3b13fe2357f00000000000000000000000000000000000000000000000000000000000000007f0000000000000000000000000000000000000000000000000000000000000000858560405161145e9493929190612871565b60405180910390a150505b5050565b6000600160008473ffffffffffffffffffffffffffffffffffffffff1673ffffffffffffffffffffffffffffffffffffffff16815260200190815260200160002060008373ffffffffffffffffffffffffffffffffffffffff1673ffffffffffffffffffffffffffffffffffffffff16815260200190815260200160002054905092915050565b6000600754905090565b7f000000000000000000000000000000000000000000000000000000000000000081565b600033905090565b611537838383600161191f565b505050565b600080830361154e57600090506115b0565b6000828461155c91906126c5565b905082848261156b91906128e5565b146115ab576040517f08c379a00000000000000000000000000000000000000000000000000000000081526004016115a290612988565b60405180910390fd5b809150505b92915050565b60008082116115fa576040517f08c379a00000000000000000000000000000000000000000000000000000000081526004016115f1906129f4565b60405180910390fd5b6000828461160891906128e5565b90508091505092915050565b6000611620848461146d565b90507fffffffffffffffffffffffffffffffffffffffffffffffffffffffffffffffff81146116a25781811015611692578281836040517ffb8f41b200000000000000000000000000000000000000000000000000000000815260040161168993929190612a14565b60405180910390fd5b6116a18484848403600061191f565b5b50505050565b600073ffffffffffffffffffffffffffffffffffffffff168373ffffffffffffffffffffffffffffffffffffffff160361171a5760006040517f96c6fd1e0000000000000000000000000000000000000000000000000000000081526004016117119190611ea2565b60405180910390fd5b600073ffffffffffffffffffffffffffffffffffffffff168273ffffffffffffffffffffffffffffffffffffffff160361178c5760006040517fec442f050000000000000000000000000000000000000000000000000000000081526004016117839190611ea2565b60405180910390fd5b611797838383611af6565b505050565b6117a68282611d1b565b5050565b60007f000000000000000000000000000000000000000000000000000000000000000073ffffffffffffffffffffffffffffffffffffffff166370a08231306040518263ffffffff1660e01b81526004016118059190611ea2565b602060405180830381865afa158015611822573d6000803e3d6000fd5b505050506040513d601f19601f8201168201806040525081019061184691906121d6565b905060007f000000000000000000000000000000000000000000000000000000000000000073ffffffffffffffffffffffffffffffffffffffff166370a08231306040518263ffffffff1660e01b81526004016118a39190611ea2565b602060405180830381865afa1580156118c0573d6000803e3d6000fd5b505050506040513d601f19601f820116820180604052508101906118e491906121d6565b90508160058190555080600681905550611907818361153c90919063ffffffff16565b6007819055505050565b61191b8282611d9d565b5050565b600073ffffffffffffffffffffffffffffffffffffffff168473ffffffffffffffffffffffffffffffffffffffff16036119915760006040517fe602df050000000000000000000000000000000000000000000000000000000081526004016119889190611ea2565b60405180910390fd5b600073ffffffffffffffffffffffffffffffffffffffff168373ffffffffffffffffffffffffffffffffffffffff1603611a035760006040517f94280d620000000000000000000000000000000000000000000000000000000081526004016119fa9190611ea2565b60405180910390fd5b81600160008673ffffffffffffffffffffffffffffffffffffffff1673ffffffffffffffffffffffffffffffffffffffff16815260200190815260200160002060008573ffffffffffffffffffffffffffffffffffffffff1673ffffffffffffffffffffffffffffffffffffffff168152602001908152602001600020819055508015611af0578273ffffffffffffffffffffffffffffffffffffffff168473ffffffffffffffffffffffffffffffffffffffff167f8c5be1e5ebec7d5bd14f71427d1e84f3dd0314c0f7b2291e5b200ac8c7c3b92584604051611ae7919061206f565b60405180910390a35b50505050565b600073ffffffffffffffffffffffffffffffffffffffff168373ffffffffffffffffffffffffffffffffffffffff1603611b48578060026000828254611b3c9190612a4b565b92505081905550611c1b565b60008060008573ffffffffffffffffffffffffffffffffffffffff1673ffffffffffffffffffffffffffffffffffffffff16815260200190815260200160002054905081811015611bd4578381836040517fe450d38c000000000000000000000000000000000000000000000000000000008152600401611bcb93929190612a14565b60405180910390fd5b8181036000808673ffffffffffffffffffffffffffffffffffffffff1673ffffffffffffffffffffffffffffffffffffffff16815260200190815260200160002081905550505b600073ffffffffffffffffffffffffffffffffffffffff168273ffffffffffffffffffffffffffffffffffffffff1603611c645780600260008282540392505081905550611cb1565b806000808473ffffffffffffffffffffffffffffffffffffffff1673ffffffffffffffffffffffffffffffffffffffff168152602001908152602001600020600082825401925050819055505b8173ffffffffffffffffffffffffffffffffffffffff168373ffffffffffffffffffffffffffffffffffffffff167fddf252ad1be2c89b69c2b068fc378daa952ba7f163c4a11628f55a4df523b3ef83604051611d0e919061206f565b60405180910390a3505050565b600073ffffffffffffffffffffffffffffffffffffffff168273ffffffffffffffffffffffffffffffffffffffff1603611d8d5760006040517f96c6fd1e000000000000000000000000000000000000000000000000000000008152600401611d849190611ea2565b60405180910390fd5b611d9982600083611af6565b5050565b600073ffffffffffffffffffffffffffffffffffffffff168273ffffffffffffffffffffffffffffffffffffffff1603611e0f5760006040517fec442f05000000000000000000000000000000000000000000000000000000008152600401611e069190611ea2565b60405180910390fd5b611e1b60008383611af6565b5050565b6000819050919050565b611e3281611e1f565b82525050565b6000604082019050611e4d6000830185611e29565b611e5a6020830184611e29565b9392505050565b600073ffffffffffffffffffffffffffffffffffffffff82169050919050565b6000611e8c82611e61565b9050919050565b611e9c81611e81565b82525050565b6000602082019050611eb76000830184611e93565b92915050565b600081519050919050565b600082825260208201905092915050565b60005b83811015611ef7578082015181840152602081019050611edc565b60008484015250505050565b6000601f19601f8301169050919050565b6000611f1f82611ebd565b611f298185611ec8565b9350611f39818560208601611ed9565b611f4281611f03565b840191505092915050565b60006020820190508181036000830152611f678184611f14565b905092915050565b600080fd5b611f7d81611e81565b8114611f8857600080fd5b50565b600081359050611f9a81611f74565b92915050565b611fa981611e1f565b8114611fb457600080fd5b50565b600081359050611fc681611fa0565b92915050565b60008060408385031215611fe357611fe2611f6f565b5b6000611ff185828601611f8b565b925050602061200285828601611fb7565b9150509250929050565b60008115159050919050565b6120218161200c565b82525050565b600060208201905061203c6000830184612018565b92915050565b60006020828403121561205857612057611f6f565b5b600061206684828501611fb7565b91505092915050565b60006020820190506120846000830184611e29565b92915050565b6000806000606084860312156120a3576120a2611f6f565b5b60006120b186828701611f8b565b93505060206120c286828701611f8b565b92505060406120d386828701611fb7565b9150509250925092565b600060ff82169050919050565b6120f3816120dd565b82525050565b600060208201905061210e60008301846120ea565b92915050565b6000806040838503121561212b5761212a611f6f565b5b600061213985828601611fb7565b925050602061214a85828601611fb7565b9150509250929050565b60006020828403121561216a57612169611f6f565b5b600061217884828501611f8b565b91505092915050565b6000806040838503121561219857612197611f6f565b5b60006121a685828601611f8b565b92505060206121b785828601611f8b565b9150509250929050565b6000815190506121d081611fa0565b92915050565b6000602082840312156121ec576121eb611f6f565b5b60006121fa848285016121c1565b91505092915050565b7f4e487b7100000000000000000000000000000000000000000000000000000000600052602260045260246000fd5b6000600282049050600182168061224a57607f821691505b60208210810361225d5761225c612203565b5b50919050565b7f576974686472617720616d6f756e74732063616e277420626520302e00000000600082015250565b6000612299601c83611ec8565b91506122a482612263565b602082019050919050565b600060208201905081810360008301526122c88161228c565b9050919050565b7f546f6b656e20776974686472617720616d6f756e747320617265206e6f74206f60008201527f6620657175616c2076616c75652e000000000000000000000000000000000000602082015250565b600061232b602e83611ec8565b9150612336826122cf565b604082019050919050565b6000602082019050818103600083015261235a8161231e565b9050919050565b7f5573657220646f65736e2774206f776e20656e6f756768206c6971756964697460008201527f7920706f6f6c2066756e64732e00000000000000000000000000000000000000602082015250565b60006123bd602d83611ec8565b91506123c882612361565b604082019050919050565b600060208201905081810360008301526123ec816123b0565b9050919050565b60006040820190506124086000830185611e93565b6124156020830184611e29565b9392505050565b6124258161200c565b811461243057600080fd5b50565b6000815190506124428161241c565b92915050565b60006020828403121561245e5761245d611f6f565b5b600061246c84828501612433565b91505092915050565b7f4465706f73697420616d6f756e74732063616e277420626520302e0000000000600082015250565b60006124ab601b83611ec8565b91506124b682612475565b602082019050919050565b600060208201905081810360008301526124da8161249e565b9050919050565b60006060820190506124f66000830186611e93565b6125036020830185611e93565b6125106040830184611e29565b949350505050565b7f4e487b7100000000000000000000000000000000000000000000000000000000600052601160045260246000fd5b60008160011c9050919050565b6000808291508390505b600185111561259e5780860481111561257a57612579612518565b5b60018516156125895780820291505b808102905061259785612547565b945061255e565b94509492505050565b6000826125b75760019050612673565b816125c55760009050612673565b81600181146125db57600281146125e557612614565b6001915050612673565b60ff8411156125f7576125f6612518565b5b8360020a91508482111561260e5761260d612518565b5b50612673565b5060208310610133831016604e8410600b84101617156126495782820a90508381111561264457612643612518565b5b612673565b6126568484846001612554565b9250905081840481111561266d5761266c612518565b5b81810290505b9392505050565b600061268582611e1f565b9150612690836120dd565b92506126bd7fffffffffffffffffffffffffffffffffffffffffffffffffffffffffffffffff84846125a7565b905092915050565b60006126d082611e1f565b91506126db83611e1f565b92508282026126e981611e1f565b91508282048414831517612700576126ff612518565b5b5092915050565b7f546f6b656e20616d6f756e74732070726f766964656420617265206e6f74206f60008201527f6620657175616c2076616c75652e000000000000000000000000000000000000602082015250565b6000612763602e83611ec8565b915061276e82612707565b604082019050919050565b6000602082019050818103600083015261279281612756565b9050919050565b7f53776170206661696c65642e0000000000000000000000000000000000000000600082015250565b60006127cf600c83611ec8565b91506127da82612799565b602082019050919050565b600060208201905081810360008301526127fe816127c2565b9050919050565b7f4e6f7420656e6f7567682072657365727665732e000000000000000000000000600082015250565b600061283b601483611ec8565b915061284682612805565b602082019050919050565b6000602082019050818103600083015261286a8161282e565b9050919050565b60006080820190506128866000830187611e93565b6128936020830186611e93565b6128a06040830185611e29565b6128ad6060830184611e29565b95945050505050565b7f4e487b7100000000000000000000000000000000000000000000000000000000600052601260045260246000fd5b60006128f082611e1f565b91506128fb83611e1f565b92508261290b5761290a6128b6565b5b828204905092915050565b7f536166654d6174683a206d756c7469706c69636174696f6e206f766572666c6f60008201527f7700000000000000000000000000000000000000000000000000000000000000602082015250565b6000612972602183611ec8565b915061297d82612916565b604082019050919050565b600060208201905081810360008301526129a181612965565b9050919050565b7f536166654d6174683a206469766973696f6e206279207a65726f000000000000600082015250565b60006129de601a83611ec8565b91506129e9826129a8565b602082019050919050565b60006020820190508181036000830152612a0d816129d1565b9050919050565b6000606082019050612a296000830186611e93565b612a366020830185611e29565b612a436040830184611e29565b949350505050565b6000612a5682611e1f565b9150612a6183611e1f565b9250828201905080821115612a7957612a78612518565b5b9291505056fea2646970667358221220e3f8b84b996b21776644597d917f210be1f140340f0e15ce7a3d232b30c9749b64736f6c63430008140033","opcodes":"PUSH1 0xC0 PUSH1 0x40 MSTORE PUSH1 0x0 PUSH1 0x5 SSTORE PUSH1 0x0 PUSH1 0x6 SSTORE CALLVALUE DUP1 ISZERO PUSH3 0x1B JUMPI PUSH1 0x0 DUP1 REVERT JUMPDEST POP PUSH1 0x40 MLOAD PUSH3 0x30BC CODESIZE SUB DUP1 PUSH3 0x30BC DUP4 CODECOPY DUP2 DUP2 ADD PUSH1 0x40 MSTORE DUP2 ADD SWAP1 PUSH3 0x41 SWAP2 SWAP1 PUSH3 0x1AD JUMP JUMPDEST PUSH1 0x40 MLOAD DUP1 PUSH1 0x40 ADD PUSH1 0x40 MSTORE DUP1 PUSH1 0x16 DUP2 MSTORE PUSH1 0x20 ADD PUSH32 0x4C6961646578204C697175696469747920546F6B656E00000000000000000000 DUP2 MSTORE POP PUSH1 0x40 MLOAD DUP1 PUSH1 0x40 ADD PUSH1 0x40 MSTORE DUP1 PUSH1 0x3 DUP2 MSTORE PUSH1 0x20 ADD PUSH32 0x4C4C540000000000000000000000000000000000000000000000000000000000 DUP2 MSTORE POP DUP2 PUSH1 0x3 SWAP1 DUP2 PUSH3 0xBE SWAP2 SWAP1 PUSH3 0x46E JUMP JUMPDEST POP DUP1 PUSH1 0x4 SWAP1 DUP2 PUSH3 0xD0 SWAP2 SWAP1 PUSH3 0x46E JUMP JUMPDEST POP POP POP DUP2 PUSH20 0xFFFFFFFFFFFFFFFFFFFFFFFFFFFFFFFFFFFFFFFF AND PUSH1 0x80 DUP2 PUSH20 0xFFFFFFFFFFFFFFFFFFFFFFFFFFFFFFFFFFFFFFFF AND DUP2 MSTORE POP POP DUP1 PUSH20 0xFFFFFFFFFFFFFFFFFFFFFFFFFFFFFFFFFFFFFFFF AND PUSH1 0xA0 DUP2 PUSH20 0xFFFFFFFFFFFFFFFFFFFFFFFFFFFFFFFFFFFFFFFF AND DUP2 MSTORE POP POP POP POP PUSH3 0x555 JUMP JUMPDEST PUSH1 0x0 DUP1 REVERT JUMPDEST PUSH1 0x0 PUSH20 0xFFFFFFFFFFFFFFFFFFFFFFFFFFFFFFFFFFFFFFFF DUP3 AND SWAP1 POP SWAP2 SWAP1 POP JUMP JUMPDEST PUSH1 0x0 PUSH3 0x175 DUP3 PUSH3 0x148 JUMP JUMPDEST SWAP1 POP SWAP2 SWAP1 POP JUMP JUMPDEST PUSH3 0x187 DUP2 PUSH3 0x168 JUMP JUMPDEST DUP2 EQ PUSH3 0x193 JUMPI PUSH1 0x0 DUP1 REVERT JUMPDEST POP JUMP JUMPDEST PUSH1 0x0 DUP2 MLOAD SWAP1 POP PUSH3 0x1A7 DUP2 PUSH3 0x17C JUMP JUMPDEST SWAP3 SWAP2 POP POP JUMP JUMPDEST PUSH1 0x0 DUP1 PUSH1 0x40 DUP4 DUP6 SUB SLT ISZERO PUSH3 0x1C7 JUMPI PUSH3 0x1C6 PUSH3 0x143 JUMP JUMPDEST JUMPDEST PUSH1 0x0 PUSH3 0x1D7 DUP6 DUP3 DUP7 ADD PUSH3 0x196 JUMP JUMPDEST SWAP3 POP POP PUSH1 0x20 PUSH3 0x1EA DUP6 DUP3 DUP7 ADD PUSH3 0x196 JUMP JUMPDEST SWAP2 POP POP SWAP3 POP SWAP3 SWAP1 POP JUMP JUMPDEST PUSH1 0x0 DUP2 MLOAD SWAP1 POP SWAP2 SWAP1 POP JUMP JUMPDEST PUSH32 0x4E487B7100000000000000000000000000000000000000000000000000000000 PUSH1 0x0 MSTORE PUSH1 0x41 PUSH1 0x4 MSTORE PUSH1 0x24 PUSH1 0x0 REVERT JUMPDEST PUSH32 0x4E487B7100000000000000000000000000000000000000000000000000000000 PUSH1 0x0 MSTORE PUSH1 0x22 PUSH1 0x4 MSTORE PUSH1 0x24 PUSH1 0x0 REVERT JUMPDEST PUSH1 0x0 PUSH1 0x2 DUP3 DIV SWAP1 POP PUSH1 0x1 DUP3 AND DUP1 PUSH3 0x276 JUMPI PUSH1 0x7F DUP3 AND SWAP2 POP JUMPDEST PUSH1 0x20 DUP3 LT DUP2 SUB PUSH3 0x28C JUMPI PUSH3 0x28B PUSH3 0x22E JUMP JUMPDEST JUMPDEST POP SWAP2 SWAP1 POP JUMP JUMPDEST PUSH1 0x0 DUP2 SWAP1 POP DUP2 PUSH1 0x0 MSTORE PUSH1 0x20 PUSH1 0x0 KECCAK256 SWAP1 POP SWAP2 SWAP1 POP JUMP JUMPDEST PUSH1 0x0 PUSH1 0x20 PUSH1 0x1F DUP4 ADD DIV SWAP1 POP SWAP2 SWAP1 POP JUMP JUMPDEST PUSH1 0x0 DUP3 DUP3 SHL SWAP1 POP SWAP3 SWAP2 POP POP JUMP JUMPDEST PUSH1 0x0 PUSH1 0x8 DUP4 MUL PUSH3 0x2F6 PUSH32 0xFFFFFFFFFFFFFFFFFFFFFFFFFFFFFFFFFFFFFFFFFFFFFFFFFFFFFFFFFFFFFFFF DUP3 PUSH3 0x2B7 JUMP JUMPDEST PUSH3 0x302 DUP7 DUP4 PUSH3 0x2B7 JUMP JUMPDEST SWAP6 POP DUP1 NOT DUP5 AND SWAP4 POP DUP1 DUP7 AND DUP5 OR SWAP3 POP POP POP SWAP4 SWAP3 POP POP POP JUMP JUMPDEST PUSH1 0x0 DUP2 SWAP1 POP SWAP2 SWAP1 POP JUMP JUMPDEST PUSH1 0x0 DUP2 SWAP1 POP SWAP2 SWAP1 POP JUMP JUMPDEST PUSH1 0x0 PUSH3 0x34F PUSH3 0x349 PUSH3 0x343 DUP5 PUSH3 0x31A JUMP JUMPDEST PUSH3 0x324 JUMP JUMPDEST PUSH3 0x31A JUMP JUMPDEST SWAP1 POP SWAP2 SWAP1 POP JUMP JUMPDEST PUSH1 0x0 DUP2 SWAP1 POP SWAP2 SWAP1 POP JUMP JUMPDEST PUSH3 0x36B DUP4 PUSH3 0x32E JUMP JUMPDEST PUSH3 0x383 PUSH3 0x37A DUP3 PUSH3 0x356 JUMP JUMPDEST DUP5 DUP5 SLOAD PUSH3 0x2C4 JUMP JUMPDEST DUP3 SSTORE POP POP POP POP JUMP JUMPDEST PUSH1 0x0 SWAP1 JUMP JUMPDEST PUSH3 0x39A PUSH3 0x38B JUMP JUMPDEST PUSH3 0x3A7 DUP2 DUP5 DUP5 PUSH3 0x360 JUMP JUMPDEST POP POP POP JUMP JUMPDEST JUMPDEST DUP2 DUP2 LT ISZERO PUSH3 0x3CF JUMPI PUSH3 0x3C3 PUSH1 0x0 DUP3 PUSH3 0x390 JUMP JUMPDEST PUSH1 0x1 DUP2 ADD SWAP1 POP PUSH3 0x3AD JUMP JUMPDEST POP POP JUMP JUMPDEST PUSH1 0x1F DUP3 GT ISZERO PUSH3 0x41E JUMPI PUSH3 0x3E8 DUP2 PUSH3 0x292 JUMP JUMPDEST PUSH3 0x3F3 DUP5 PUSH3 0x2A7 JUMP JUMPDEST DUP2 ADD PUSH1 0x20 DUP6 LT ISZERO PUSH3 0x403 JUMPI DUP2 SWAP1 POP JUMPDEST PUSH3 0x41B PUSH3 0x412 DUP6 PUSH3 0x2A7 JUMP JUMPDEST DUP4 ADD DUP3 PUSH3 0x3AC JUMP JUMPDEST POP POP JUMPDEST POP POP POP JUMP JUMPDEST PUSH1 0x0 DUP3 DUP3 SHR SWAP1 POP SWAP3 SWAP2 POP POP JUMP JUMPDEST PUSH1 0x0 PUSH3 0x443 PUSH1 0x0 NOT DUP5 PUSH1 0x8 MUL PUSH3 0x423 JUMP JUMPDEST NOT DUP1 DUP4 AND SWAP2 POP POP SWAP3 SWAP2 POP POP JUMP JUMPDEST PUSH1 0x0 PUSH3 0x45E DUP4 DUP4 PUSH3 0x430 JUMP JUMPDEST SWAP2 POP DUP3 PUSH1 0x2 MUL DUP3 OR SWAP1 POP SWAP3 SWAP2 POP POP JUMP JUMPDEST PUSH3 0x479 DUP3 PUSH3 0x1F4 JUMP JUMPDEST PUSH8 0xFFFFFFFFFFFFFFFF DUP2 GT ISZERO PUSH3 0x495 JUMPI PUSH3 0x494 PUSH3 0x1FF JUMP JUMPDEST JUMPDEST PUSH3 0x4A1 DUP3 SLOAD PUSH3 0x25D JUMP JUMPDEST PUSH3 0x4AE DUP3 DUP3 DUP6 PUSH3 0x3D3 JUMP JUMPDEST PUSH1 0x0 PUSH1 0x20 SWAP1 POP PUSH1 0x1F DUP4 GT PUSH1 0x1 DUP2 EQ PUSH3 0x4E6 JUMPI PUSH1 0x0 DUP5 ISZERO PUSH3 0x4D1 JUMPI DUP3 DUP8 ADD MLOAD SWAP1 POP JUMPDEST PUSH3 0x4DD DUP6 DUP3 PUSH3 0x450 JUMP JUMPDEST DUP7 SSTORE POP PUSH3 0x54D JUMP JUMPDEST PUSH1 0x1F NOT DUP5 AND PUSH3 0x4F6 DUP7 PUSH3 0x292 JUMP JUMPDEST PUSH1 0x0 JUMPDEST DUP3 DUP2 LT ISZERO PUSH3 0x520 JUMPI DUP5 DUP10 ADD MLOAD DUP3 SSTORE PUSH1 0x1 DUP3 ADD SWAP2 POP PUSH1 0x20 DUP6 ADD SWAP5 POP PUSH1 0x20 DUP2 ADD SWAP1 POP PUSH3 0x4F9 JUMP JUMPDEST DUP7 DUP4 LT ISZERO PUSH3 0x540 JUMPI DUP5 DUP10 ADD MLOAD PUSH3 0x53C PUSH1 0x1F DUP10 AND DUP3 PUSH3 0x430 JUMP JUMPDEST DUP4 SSTORE POP JUMPDEST PUSH1 0x1 PUSH1 0x2 DUP9 MUL ADD DUP9 SSTORE POP POP POP JUMPDEST POP POP POP POP POP POP JUMP JUMPDEST PUSH1 0x80 MLOAD PUSH1 0xA0 MLOAD PUSH2 0x2AB5 PUSH3 0x607 PUSH1 0x0 CODECOPY PUSH1 0x0 DUP2 DUP2 PUSH2 0x4CA ADD MSTORE DUP2 DUP2 PUSH2 0x56C ADD MSTORE DUP2 DUP2 PUSH2 0x68A ADD MSTORE DUP2 DUP2 PUSH2 0x8BE ADD MSTORE DUP2 DUP2 PUSH2 0xBB9 ADD MSTORE DUP2 DUP2 PUSH2 0xD8C ADD MSTORE DUP2 DUP2 PUSH2 0x10B7 ADD MSTORE DUP2 DUP2 PUSH2 0x11A0 ADD MSTORE DUP2 DUP2 PUSH2 0x1262 ADD MSTORE DUP2 DUP2 PUSH2 0x140C ADD MSTORE PUSH2 0x184C ADD MSTORE PUSH1 0x0 DUP2 DUP2 PUSH2 0x430 ADD MSTORE DUP2 DUP2 PUSH2 0x81F ADD MSTORE DUP2 DUP2 PUSH2 0xB18 ADD MSTORE DUP2 DUP2 PUSH2 0xCEB ADD MSTORE DUP2 DUP2 PUSH2 0xED6 ADD MSTORE DUP2 DUP2 PUSH2 0xFD5 ADD MSTORE DUP2 DUP2 PUSH2 0x117F ADD MSTORE DUP2 DUP2 PUSH2 0x1344 ADD MSTORE DUP2 DUP2 PUSH2 0x142D ADD MSTORE DUP2 DUP2 PUSH2 0x1500 ADD MSTORE PUSH2 0x17AE ADD MSTORE PUSH2 0x2AB5 PUSH1 0x0 RETURN INVALID PUSH1 0x80 PUSH1 0x40 MSTORE CALLVALUE DUP1 ISZERO PUSH2 0x10 JUMPI PUSH1 0x0 DUP1 REVERT JUMPDEST POP PUSH1 0x4 CALLDATASIZE LT PUSH2 0x136 JUMPI PUSH1 0x0 CALLDATALOAD PUSH1 0xE0 SHR DUP1 PUSH4 0x441A3E70 GT PUSH2 0xB8 JUMPI DUP1 PUSH4 0xA9059CBB GT PUSH2 0x7C JUMPI DUP1 PUSH4 0xA9059CBB EQ PUSH2 0x355 JUMPI DUP1 PUSH4 0xAE0BA2FB EQ PUSH2 0x385 JUMPI DUP1 PUSH4 0xD96073CF EQ PUSH2 0x3A3 JUMPI DUP1 PUSH4 0xDD62ED3E EQ PUSH2 0x3BF JUMPI DUP1 PUSH4 0xEE39E7A0 EQ PUSH2 0x3EF JUMPI DUP1 PUSH4 0xF3C4469F EQ PUSH2 0x40D JUMPI PUSH2 0x136 JUMP JUMPDEST DUP1 PUSH4 0x441A3E70 EQ PUSH2 0x29F JUMPI DUP1 PUSH4 0x6391F7E1 EQ PUSH2 0x2BB JUMPI DUP1 PUSH4 0x70A08231 EQ PUSH2 0x2EB JUMPI DUP1 PUSH4 0x95D89B41 EQ PUSH2 0x31B JUMPI DUP1 PUSH4 0x9CD441DA EQ PUSH2 0x339 JUMPI PUSH2 0x136 JUMP JUMPDEST DUP1 PUSH4 0x9C0ABF5 GT PUSH2 0xFF JUMPI DUP1 PUSH4 0x9C0ABF5 EQ PUSH2 0x1E5 JUMPI DUP1 PUSH4 0xF0148EA EQ PUSH2 0x215 JUMPI DUP1 PUSH4 0x18160DDD EQ PUSH2 0x233 JUMPI DUP1 PUSH4 0x23B872DD EQ PUSH2 0x251 JUMPI DUP1 PUSH4 0x313CE567 EQ PUSH2 0x281 JUMPI PUSH2 0x136 JUMP JUMPDEST DUP1 PUSH3 0x113E08 EQ PUSH2 0x13B JUMPI DUP1 PUSH4 0x4BA7F29 EQ PUSH2 0x15A JUMPI DUP1 PUSH4 0x6FDDE03 EQ PUSH2 0x178 JUMPI DUP1 PUSH4 0x902F1AC EQ PUSH2 0x196 JUMPI DUP1 PUSH4 0x95EA7B3 EQ PUSH2 0x1B5 JUMPI JUMPDEST PUSH1 0x0 DUP1 REVERT JUMPDEST PUSH2 0x143 PUSH2 0x42B JUMP JUMPDEST PUSH1 0x40 MLOAD PUSH2 0x151 SWAP3 SWAP2 SWAP1 PUSH2 0x1E38 JUMP JUMPDEST PUSH1 0x40 MLOAD DUP1 SWAP2 SUB SWAP1 RETURN JUMPDEST PUSH2 0x162 PUSH2 0x56A JUMP JUMPDEST PUSH1 0x40 MLOAD PUSH2 0x16F SWAP2 SWAP1 PUSH2 0x1EA2 JUMP JUMPDEST PUSH1 0x40 MLOAD DUP1 SWAP2 SUB SWAP1 RETURN JUMPDEST PUSH2 0x180 PUSH2 0x58E JUMP JUMPDEST PUSH1 0x40 MLOAD PUSH2 0x18D SWAP2 SWAP1 PUSH2 0x1F4D JUMP JUMPDEST PUSH1 0x40 MLOAD DUP1 SWAP2 SUB SWAP1 RETURN JUMPDEST PUSH2 0x19E PUSH2 0x620 JUMP JUMPDEST PUSH1 0x40 MLOAD PUSH2 0x1AC SWAP3 SWAP2 SWAP1 PUSH2 0x1E38 JUMP JUMPDEST PUSH1 0x40 MLOAD DUP1 SWAP2 SUB SWAP1 RETURN JUMPDEST PUSH2 0x1CF PUSH1 0x4 DUP1 CALLDATASIZE SUB DUP2 ADD SWAP1 PUSH2 0x1CA SWAP2 SWAP1 PUSH2 0x1FCC JUMP JUMPDEST PUSH2 0x631 JUMP JUMPDEST PUSH1 0x40 MLOAD PUSH2 0x1DC SWAP2 SWAP1 PUSH2 0x2027 JUMP JUMPDEST PUSH1 0x40 MLOAD DUP1 SWAP2 SUB SWAP1 RETURN JUMPDEST PUSH2 0x1FF PUSH1 0x4 DUP1 CALLDATASIZE SUB DUP2 ADD SWAP1 PUSH2 0x1FA SWAP2 SWAP1 PUSH2 0x2042 JUMP JUMPDEST PUSH2 0x654 JUMP JUMPDEST PUSH1 0x40 MLOAD PUSH2 0x20C SWAP2 SWAP1 PUSH2 0x206F JUMP JUMPDEST PUSH1 0x40 MLOAD DUP1 SWAP2 SUB SWAP1 RETURN JUMPDEST PUSH2 0x21D PUSH2 0x686 JUMP JUMPDEST PUSH1 0x40 MLOAD PUSH2 0x22A SWAP2 SWAP1 PUSH2 0x1EA2 JUMP JUMPDEST PUSH1 0x40 MLOAD DUP1 SWAP2 SUB SWAP1 RETURN JUMPDEST PUSH2 0x23B PUSH2 0x6AE JUMP JUMPDEST PUSH1 0x40 MLOAD PUSH2 0x248 SWAP2 SWAP1 PUSH2 0x206F JUMP JUMPDEST PUSH1 0x40 MLOAD DUP1 SWAP2 SUB SWAP1 RETURN JUMPDEST PUSH2 0x26B PUSH1 0x4 DUP1 CALLDATASIZE SUB DUP2 ADD SWAP1 PUSH2 0x266 SWAP2 SWAP1 PUSH2 0x208A JUMP JUMPDEST PUSH2 0x6B8 JUMP JUMPDEST PUSH1 0x40 MLOAD PUSH2 0x278 SWAP2 SWAP1 PUSH2 0x2027 JUMP JUMPDEST PUSH1 0x40 MLOAD DUP1 SWAP2 SUB SWAP1 RETURN JUMPDEST PUSH2 0x289 PUSH2 0x6E7 JUMP JUMPDEST PUSH1 0x40 MLOAD PUSH2 0x296 SWAP2 SWAP1 PUSH2 0x20F9 JUMP JUMPDEST PUSH1 0x40 MLOAD DUP1 SWAP2 SUB SWAP1 RETURN JUMPDEST PUSH2 0x2B9 PUSH1 0x4 DUP1 CALLDATASIZE SUB DUP2 ADD SWAP1 PUSH2 0x2B4 SWAP2 SWAP1 PUSH2 0x2114 JUMP JUMPDEST PUSH2 0x6F0 JUMP JUMPDEST STOP JUMPDEST PUSH2 0x2D5 PUSH1 0x4 DUP1 CALLDATASIZE SUB DUP2 ADD SWAP1 PUSH2 0x2D0 SWAP2 SWAP1 PUSH2 0x2042 JUMP JUMPDEST PUSH2 0x9AC JUMP JUMPDEST PUSH1 0x40 MLOAD PUSH2 0x2E2 SWAP2 SWAP1 PUSH2 0x206F JUMP JUMPDEST PUSH1 0x40 MLOAD DUP1 SWAP2 SUB SWAP1 RETURN JUMPDEST PUSH2 0x305 PUSH1 0x4 DUP1 CALLDATASIZE SUB DUP2 ADD SWAP1 PUSH2 0x300 SWAP2 SWAP1 PUSH2 0x2154 JUMP JUMPDEST PUSH2 0x9DE JUMP JUMPDEST PUSH1 0x40 MLOAD PUSH2 0x312 SWAP2 SWAP1 PUSH2 0x206F JUMP JUMPDEST PUSH1 0x40 MLOAD DUP1 SWAP2 SUB SWAP1 RETURN JUMPDEST PUSH2 0x323 PUSH2 0xA26 JUMP JUMPDEST PUSH1 0x40 MLOAD PUSH2 0x330 SWAP2 SWAP1 PUSH2 0x1F4D JUMP JUMPDEST PUSH1 0x40 MLOAD DUP1 SWAP2 SUB SWAP1 RETURN JUMPDEST PUSH2 0x353 PUSH1 0x4 DUP1 CALLDATASIZE SUB DUP2 ADD SWAP1 PUSH2 0x34E SWAP2 SWAP1 PUSH2 0x2114 JUMP JUMPDEST PUSH2 0xAB8 JUMP JUMPDEST STOP JUMPDEST PUSH2 0x36F PUSH1 0x4 DUP1 CALLDATASIZE SUB DUP2 ADD SWAP1 PUSH2 0x36A SWAP2 SWAP1 PUSH2 0x1FCC JUMP JUMPDEST PUSH2 0xEAF JUMP JUMPDEST PUSH1 0x40 MLOAD PUSH2 0x37C SWAP2 SWAP1 PUSH2 0x2027 JUMP JUMPDEST PUSH1 0x40 MLOAD DUP1 SWAP2 SUB SWAP1 RETURN JUMPDEST PUSH2 0x38D PUSH2 0xED2 JUMP JUMPDEST PUSH1 0x40 MLOAD PUSH2 0x39A SWAP2 SWAP1 PUSH2 0x1EA2 JUMP JUMPDEST PUSH1 0x40 MLOAD DUP1 SWAP2 SUB SWAP1 RETURN JUMPDEST PUSH2 0x3BD PUSH1 0x4 DUP1 CALLDATASIZE SUB DUP2 ADD SWAP1 PUSH2 0x3B8 SWAP2 SWAP1 PUSH2 0x2114 JUMP JUMPDEST PUSH2 0xEFA JUMP JUMPDEST STOP JUMPDEST PUSH2 0x3D9 PUSH1 0x4 DUP1 CALLDATASIZE SUB DUP2 ADD SWAP1 PUSH2 0x3D4 SWAP2 SWAP1 PUSH2 0x2181 JUMP JUMPDEST PUSH2 0x146D JUMP JUMPDEST PUSH1 0x40 MLOAD PUSH2 0x3E6 SWAP2 SWAP1 PUSH2 0x206F JUMP JUMPDEST PUSH1 0x40 MLOAD DUP1 SWAP2 SUB SWAP1 RETURN JUMPDEST PUSH2 0x3F7 PUSH2 0x14F4 JUMP JUMPDEST PUSH1 0x40 MLOAD PUSH2 0x404 SWAP2 SWAP1 PUSH2 0x206F JUMP JUMPDEST PUSH1 0x40 MLOAD DUP1 SWAP2 SUB SWAP1 RETURN JUMPDEST PUSH2 0x415 PUSH2 0x14FE JUMP JUMPDEST PUSH1 0x40 MLOAD PUSH2 0x422 SWAP2 SWAP1 PUSH2 0x1EA2 JUMP JUMPDEST PUSH1 0x40 MLOAD DUP1 SWAP2 SUB SWAP1 RETURN JUMPDEST PUSH1 0x0 DUP1 PUSH32 0x0 PUSH20 0xFFFFFFFFFFFFFFFFFFFFFFFFFFFFFFFFFFFFFFFF AND PUSH4 0x70A08231 ADDRESS PUSH1 0x40 MLOAD DUP3 PUSH4 0xFFFFFFFF AND PUSH1 0xE0 SHL DUP2 MSTORE PUSH1 0x4 ADD PUSH2 0x487 SWAP2 SWAP1 PUSH2 0x1EA2 JUMP JUMPDEST PUSH1 0x20 PUSH1 0x40 MLOAD DUP1 DUP4 SUB DUP2 DUP7 GAS STATICCALL ISZERO DUP1 ISZERO PUSH2 0x4A4 JUMPI RETURNDATASIZE PUSH1 0x0 DUP1 RETURNDATACOPY RETURNDATASIZE PUSH1 0x0 REVERT JUMPDEST POP POP POP POP PUSH1 0x40 MLOAD RETURNDATASIZE PUSH1 0x1F NOT PUSH1 0x1F DUP3 ADD AND DUP3 ADD DUP1 PUSH1 0x40 MSTORE POP DUP2 ADD SWAP1 PUSH2 0x4C8 SWAP2 SWAP1 PUSH2 0x21D6 JUMP JUMPDEST PUSH32 0x0 PUSH20 0xFFFFFFFFFFFFFFFFFFFFFFFFFFFFFFFFFFFFFFFF AND PUSH4 0x70A08231 ADDRESS PUSH1 0x40 MLOAD DUP3 PUSH4 0xFFFFFFFF AND PUSH1 0xE0 SHL DUP2 MSTORE PUSH1 0x4 ADD PUSH2 0x521 SWAP2 SWAP1 PUSH2 0x1EA2 JUMP JUMPDEST PUSH1 0x20 PUSH1 0x40 MLOAD DUP1 DUP4 SUB DUP2 DUP7 GAS STATICCALL ISZERO DUP1 ISZERO PUSH2 0x53E JUMPI RETURNDATASIZE PUSH1 0x0 DUP1 RETURNDATACOPY RETURNDATASIZE PUSH1 0x0 REVERT JUMPDEST POP POP POP POP PUSH1 0x40 MLOAD RETURNDATASIZE PUSH1 0x1F NOT PUSH1 0x1F DUP3 ADD AND DUP3 ADD DUP1 PUSH1 0x40 MSTORE POP DUP2 ADD SWAP1 PUSH2 0x562 SWAP2 SWAP1 PUSH2 0x21D6 JUMP JUMPDEST SWAP2 POP SWAP2 POP SWAP1 SWAP2 JUMP JUMPDEST PUSH32 0x0 DUP2 JUMP JUMPDEST PUSH1 0x60 PUSH1 0x3 DUP1 SLOAD PUSH2 0x59D SWAP1 PUSH2 0x2232 JUMP JUMPDEST DUP1 PUSH1 0x1F ADD PUSH1 0x20 DUP1 SWAP2 DIV MUL PUSH1 0x20 ADD PUSH1 0x40 MLOAD SWAP1 DUP2 ADD PUSH1 0x40 MSTORE DUP1 SWAP3 SWAP2 SWAP1 DUP2 DUP2 MSTORE PUSH1 0x20 ADD DUP3 DUP1 SLOAD PUSH2 0x5C9 SWAP1 PUSH2 0x2232 JUMP JUMPDEST DUP1 ISZERO PUSH2 0x616 JUMPI DUP1 PUSH1 0x1F LT PUSH2 0x5EB JUMPI PUSH2 0x100 DUP1 DUP4 SLOAD DIV MUL DUP4 MSTORE SWAP2 PUSH1 0x20 ADD SWAP2 PUSH2 0x616 JUMP JUMPDEST DUP3 ADD SWAP2 SWAP1 PUSH1 0x0 MSTORE PUSH1 0x20 PUSH1 0x0 KECCAK256 SWAP1 JUMPDEST DUP2 SLOAD DUP2 MSTORE SWAP1 PUSH1 0x1 ADD SWAP1 PUSH1 0x20 ADD DUP1 DUP4 GT PUSH2 0x5F9 JUMPI DUP3 SWAP1 SUB PUSH1 0x1F AND DUP3 ADD SWAP2 JUMPDEST POP POP POP POP POP SWAP1 POP SWAP1 JUMP JUMPDEST PUSH1 0x0 DUP1 PUSH1 0x5 SLOAD PUSH1 0x6 SLOAD SWAP2 POP SWAP2 POP SWAP1 SWAP2 JUMP JUMPDEST PUSH1 0x0 DUP1 PUSH2 0x63C PUSH2 0x1522 JUMP JUMPDEST SWAP1 POP PUSH2 0x649 DUP2 DUP6 DUP6 PUSH2 0x152A JUMP JUMPDEST PUSH1 0x1 SWAP2 POP POP SWAP3 SWAP2 POP POP JUMP JUMPDEST PUSH1 0x0 PUSH2 0x67F PUSH1 0x6 SLOAD PUSH2 0x671 DUP5 PUSH1 0x5 SLOAD PUSH2 0x153C SWAP1 SWAP2 SWAP1 PUSH4 0xFFFFFFFF AND JUMP JUMPDEST PUSH2 0x15B6 SWAP1 SWAP2 SWAP1 PUSH4 0xFFFFFFFF AND JUMP JUMPDEST SWAP1 POP SWAP2 SWAP1 POP JUMP JUMPDEST PUSH1 0x0 PUSH32 0x0 SWAP1 POP SWAP1 JUMP JUMPDEST PUSH1 0x0 PUSH1 0x2 SLOAD SWAP1 POP SWAP1 JUMP JUMPDEST PUSH1 0x0 DUP1 PUSH2 0x6C3 PUSH2 0x1522 JUMP JUMPDEST SWAP1 POP PUSH2 0x6D0 DUP6 DUP3 DUP6 PUSH2 0x1614 JUMP JUMPDEST PUSH2 0x6DB DUP6 DUP6 DUP6 PUSH2 0x16A8 JUMP JUMPDEST PUSH1 0x1 SWAP2 POP POP SWAP4 SWAP3 POP POP POP JUMP JUMPDEST PUSH1 0x0 PUSH1 0x12 SWAP1 POP SWAP1 JUMP JUMPDEST PUSH1 0x0 DUP3 GT DUP1 ISZERO PUSH2 0x700 JUMPI POP PUSH1 0x0 DUP2 GT JUMPDEST PUSH2 0x73F JUMPI PUSH1 0x40 MLOAD PUSH32 0x8C379A000000000000000000000000000000000000000000000000000000000 DUP2 MSTORE PUSH1 0x4 ADD PUSH2 0x736 SWAP1 PUSH2 0x22AF JUMP JUMPDEST PUSH1 0x40 MLOAD DUP1 SWAP2 SUB SWAP1 REVERT JUMPDEST PUSH1 0x0 DUP3 PUSH2 0x74B DUP4 PUSH2 0x654 JUMP JUMPDEST EQ DUP1 PUSH2 0x75E JUMPI POP DUP2 PUSH2 0x75C DUP5 PUSH2 0x9AC JUMP JUMPDEST EQ JUMPDEST SWAP1 POP DUP1 PUSH2 0x7A0 JUMPI PUSH1 0x40 MLOAD PUSH32 0x8C379A000000000000000000000000000000000000000000000000000000000 DUP2 MSTORE PUSH1 0x4 ADD PUSH2 0x797 SWAP1 PUSH2 0x2341 JUMP JUMPDEST PUSH1 0x40 MLOAD DUP1 SWAP2 SUB SWAP1 REVERT JUMPDEST PUSH1 0x0 PUSH2 0x7D0 PUSH1 0x5 SLOAD PUSH2 0x7C2 PUSH2 0x7B3 PUSH2 0x6AE JUMP JUMPDEST DUP8 PUSH2 0x153C SWAP1 SWAP2 SWAP1 PUSH4 0xFFFFFFFF AND JUMP JUMPDEST PUSH2 0x15B6 SWAP1 SWAP2 SWAP1 PUSH4 0xFFFFFFFF AND JUMP JUMPDEST SWAP1 POP DUP1 PUSH2 0x7DC CALLER PUSH2 0x9DE JUMP JUMPDEST LT ISZERO PUSH2 0x81D JUMPI PUSH1 0x40 MLOAD PUSH32 0x8C379A000000000000000000000000000000000000000000000000000000000 DUP2 MSTORE PUSH1 0x4 ADD PUSH2 0x814 SWAP1 PUSH2 0x23D3 JUMP JUMPDEST PUSH1 0x40 MLOAD DUP1 SWAP2 SUB SWAP1 REVERT JUMPDEST PUSH32 0x0 PUSH20 0xFFFFFFFFFFFFFFFFFFFFFFFFFFFFFFFFFFFFFFFF AND PUSH4 0xA9059CBB CALLER DUP7 PUSH1 0x40 MLOAD DUP4 PUSH4 0xFFFFFFFF AND PUSH1 0xE0 SHL DUP2 MSTORE PUSH1 0x4 ADD PUSH2 0x878 SWAP3 SWAP2 SWAP1 PUSH2 0x23F3 JUMP JUMPDEST PUSH1 0x20 PUSH1 0x40 MLOAD DUP1 DUP4 SUB DUP2 PUSH1 0x0 DUP8 GAS CALL ISZERO DUP1 ISZERO PUSH2 0x897 JUMPI RETURNDATASIZE PUSH1 0x0 DUP1 RETURNDATACOPY RETURNDATASIZE PUSH1 0x0 REVERT JUMPDEST POP POP POP POP PUSH1 0x40 MLOAD RETURNDATASIZE PUSH1 0x1F NOT PUSH1 0x1F DUP3 ADD AND DUP3 ADD DUP1 PUSH1 0x40 MSTORE POP DUP2 ADD SWAP1 PUSH2 0x8BB SWAP2 SWAP1 PUSH2 0x2448 JUMP JUMPDEST POP PUSH32 0x0 PUSH20 0xFFFFFFFFFFFFFFFFFFFFFFFFFFFFFFFFFFFFFFFF AND PUSH4 0xA9059CBB CALLER DUP6 PUSH1 0x40 MLOAD DUP4 PUSH4 0xFFFFFFFF AND PUSH1 0xE0 SHL DUP2 MSTORE PUSH1 0x4 ADD PUSH2 0x917 SWAP3 SWAP2 SWAP1 PUSH2 0x23F3 JUMP JUMPDEST PUSH1 0x20 PUSH1 0x40 MLOAD DUP1 DUP4 SUB DUP2 PUSH1 0x0 DUP8 GAS CALL ISZERO DUP1 ISZERO PUSH2 0x936 JUMPI RETURNDATASIZE PUSH1 0x0 DUP1 RETURNDATACOPY RETURNDATASIZE PUSH1 0x0 REVERT JUMPDEST POP POP POP POP PUSH1 0x40 MLOAD RETURNDATASIZE PUSH1 0x1F NOT PUSH1 0x1F DUP3 ADD AND DUP3 ADD DUP1 PUSH1 0x40 MSTORE POP DUP2 ADD SWAP1 PUSH2 0x95A SWAP2 SWAP1 PUSH2 0x2448 JUMP JUMPDEST POP PUSH2 0x965 CALLER DUP3 PUSH2 0x179C JUMP JUMPDEST PUSH32 0xF3F4772B0CE29670F0F94B6BB2B4AFED357A2EE57D34E31562426895E978F71E DUP5 DUP5 PUSH1 0x40 MLOAD PUSH2 0x996 SWAP3 SWAP2 SWAP1 PUSH2 0x1E38 JUMP JUMPDEST PUSH1 0x40 MLOAD DUP1 SWAP2 SUB SWAP1 LOG1 PUSH2 0x9A6 PUSH2 0x17AA JUMP JUMPDEST POP POP POP POP JUMP JUMPDEST PUSH1 0x0 PUSH2 0x9D7 PUSH1 0x5 SLOAD PUSH2 0x9C9 DUP5 PUSH1 0x6 SLOAD PUSH2 0x153C SWAP1 SWAP2 SWAP1 PUSH4 0xFFFFFFFF AND JUMP JUMPDEST PUSH2 0x15B6 SWAP1 SWAP2 SWAP1 PUSH4 0xFFFFFFFF AND JUMP JUMPDEST SWAP1 POP SWAP2 SWAP1 POP JUMP JUMPDEST PUSH1 0x0 DUP1 PUSH1 0x0 DUP4 PUSH20 0xFFFFFFFFFFFFFFFFFFFFFFFFFFFFFFFFFFFFFFFF AND PUSH20 0xFFFFFFFFFFFFFFFFFFFFFFFFFFFFFFFFFFFFFFFF AND DUP2 MSTORE PUSH1 0x20 ADD SWAP1 DUP2 MSTORE PUSH1 0x20 ADD PUSH1 0x0 KECCAK256 SLOAD SWAP1 POP SWAP2 SWAP1 POP JUMP JUMPDEST PUSH1 0x60 PUSH1 0x4 DUP1 SLOAD PUSH2 0xA35 SWAP1 PUSH2 0x2232 JUMP JUMPDEST DUP1 PUSH1 0x1F ADD PUSH1 0x20 DUP1 SWAP2 DIV MUL PUSH1 0x20 ADD PUSH1 0x40 MLOAD SWAP1 DUP2 ADD PUSH1 0x40 MSTORE DUP1 SWAP3 SWAP2 SWAP1 DUP2 DUP2 MSTORE PUSH1 0x20 ADD DUP3 DUP1 SLOAD PUSH2 0xA61 SWAP1 PUSH2 0x2232 JUMP JUMPDEST DUP1 ISZERO PUSH2 0xAAE JUMPI DUP1 PUSH1 0x1F LT PUSH2 0xA83 JUMPI PUSH2 0x100 DUP1 DUP4 SLOAD DIV MUL DUP4 MSTORE SWAP2 PUSH1 0x20 ADD SWAP2 PUSH2 0xAAE JUMP JUMPDEST DUP3 ADD SWAP2 SWAP1 PUSH1 0x0 MSTORE PUSH1 0x20 PUSH1 0x0 KECCAK256 SWAP1 JUMPDEST DUP2 SLOAD DUP2 MSTORE SWAP1 PUSH1 0x1 ADD SWAP1 PUSH1 0x20 ADD DUP1 DUP4 GT PUSH2 0xA91 JUMPI DUP3 SWAP1 SUB PUSH1 0x1F AND DUP3 ADD SWAP2 JUMPDEST POP POP POP POP POP SWAP1 POP SWAP1 JUMP JUMPDEST PUSH1 0x0 DUP3 GT DUP1 ISZERO PUSH2 0xAC8 JUMPI POP PUSH1 0x0 DUP2 GT JUMPDEST PUSH2 0xB07 JUMPI PUSH1 0x40 MLOAD PUSH32 0x8C379A000000000000000000000000000000000000000000000000000000000 DUP2 MSTORE PUSH1 0x4 ADD PUSH2 0xAFE SWAP1 PUSH2 0x24C1 JUMP JUMPDEST PUSH1 0x40 MLOAD DUP1 SWAP2 SUB SWAP1 REVERT JUMPDEST PUSH1 0x0 PUSH2 0xB11 PUSH2 0x6AE JUMP JUMPDEST SUB PUSH2 0xC87 JUMPI PUSH32 0x0 PUSH20 0xFFFFFFFFFFFFFFFFFFFFFFFFFFFFFFFFFFFFFFFF AND PUSH4 0x23B872DD CALLER ADDRESS DUP6 PUSH1 0x40 MLOAD DUP5 PUSH4 0xFFFFFFFF AND PUSH1 0xE0 SHL DUP2 MSTORE PUSH1 0x4 ADD PUSH2 0xB73 SWAP4 SWAP3 SWAP2 SWAP1 PUSH2 0x24E1 JUMP JUMPDEST PUSH1 0x20 PUSH1 0x40 MLOAD DUP1 DUP4 SUB DUP2 PUSH1 0x0 DUP8 GAS CALL ISZERO DUP1 ISZERO PUSH2 0xB92 JUMPI RETURNDATASIZE PUSH1 0x0 DUP1 RETURNDATACOPY RETURNDATASIZE PUSH1 0x0 REVERT JUMPDEST POP POP POP POP PUSH1 0x40 MLOAD RETURNDATASIZE PUSH1 0x1F NOT PUSH1 0x1F DUP3 ADD AND DUP3 ADD DUP1 PUSH1 0x40 MSTORE POP DUP2 ADD SWAP1 PUSH2 0xBB6 SWAP2 SWAP1 PUSH2 0x2448 JUMP JUMPDEST POP PUSH32 0x0 PUSH20 0xFFFFFFFFFFFFFFFFFFFFFFFFFFFFFFFFFFFFFFFF AND PUSH4 0x23B872DD CALLER ADDRESS DUP5 PUSH1 0x40 MLOAD DUP5 PUSH4 0xFFFFFFFF AND PUSH1 0xE0 SHL DUP2 MSTORE PUSH1 0x4 ADD PUSH2 0xC14 SWAP4 SWAP3 SWAP2 SWAP1 PUSH2 0x24E1 JUMP JUMPDEST PUSH1 0x20 PUSH1 0x40 MLOAD DUP1 DUP4 SUB DUP2 PUSH1 0x0 DUP8 GAS CALL ISZERO DUP1 ISZERO PUSH2 0xC33 JUMPI RETURNDATASIZE PUSH1 0x0 DUP1 RETURNDATACOPY RETURNDATASIZE PUSH1 0x0 REVERT JUMPDEST POP POP POP POP PUSH1 0x40 MLOAD RETURNDATASIZE PUSH1 0x1F NOT PUSH1 0x1F DUP3 ADD AND DUP3 ADD DUP1 PUSH1 0x40 MSTORE POP DUP2 ADD SWAP1 PUSH2 0xC57 SWAP2 SWAP1 PUSH2 0x2448 JUMP JUMPDEST POP PUSH2 0xC82 CALLER PUSH2 0xC64 PUSH2 0x6E7 JUMP JUMPDEST PUSH1 0xA PUSH2 0xC70 SWAP2 SWAP1 PUSH2 0x267A JUMP JUMPDEST PUSH2 0x3E8 PUSH2 0xC7D SWAP2 SWAP1 PUSH2 0x26C5 JUMP JUMPDEST PUSH2 0x1911 JUMP JUMPDEST PUSH2 0xEA3 JUMP JUMPDEST PUSH1 0x0 DUP3 PUSH2 0xC93 DUP4 PUSH2 0x654 JUMP JUMPDEST EQ DUP1 ISZERO PUSH2 0xCA7 JUMPI POP DUP2 PUSH2 0xCA5 DUP5 PUSH2 0x9AC JUMP JUMPDEST EQ JUMPDEST SWAP1 POP DUP1 PUSH2 0xCE9 JUMPI PUSH1 0x40 MLOAD PUSH32 0x8C379A000000000000000000000000000000000000000000000000000000000 DUP2 MSTORE PUSH1 0x4 ADD PUSH2 0xCE0 SWAP1 PUSH2 0x2779 JUMP JUMPDEST PUSH1 0x40 MLOAD DUP1 SWAP2 SUB SWAP1 REVERT JUMPDEST PUSH32 0x0 PUSH20 0xFFFFFFFFFFFFFFFFFFFFFFFFFFFFFFFFFFFFFFFF AND PUSH4 0x23B872DD CALLER ADDRESS DUP7 PUSH1 0x40 MLOAD DUP5 PUSH4 0xFFFFFFFF AND PUSH1 0xE0 SHL DUP2 MSTORE PUSH1 0x4 ADD PUSH2 0xD46 SWAP4 SWAP3 SWAP2 SWAP1 PUSH2 0x24E1 JUMP JUMPDEST PUSH1 0x20 PUSH1 0x40 MLOAD DUP1 DUP4 SUB DUP2 PUSH1 0x0 DUP8 GAS CALL ISZERO DUP1 ISZERO PUSH2 0xD65 JUMPI RETURNDATASIZE PUSH1 0x0 DUP1 RETURNDATACOPY RETURNDATASIZE PUSH1 0x0 REVERT JUMPDEST POP POP POP POP PUSH1 0x40 MLOAD RETURNDATASIZE PUSH1 0x1F NOT PUSH1 0x1F DUP3 ADD AND DUP3 ADD DUP1 PUSH1 0x40 MSTORE POP DUP2 ADD SWAP1 PUSH2 0xD89 SWAP2 SWAP1 PUSH2 0x2448 JUMP JUMPDEST POP PUSH32 0x0 PUSH20 0xFFFFFFFFFFFFFFFFFFFFFFFFFFFFFFFFFFFFFFFF AND PUSH4 0x23B872DD CALLER ADDRESS DUP6 PUSH1 0x40 MLOAD DUP5 PUSH4 0xFFFFFFFF AND PUSH1 0xE0 SHL DUP2 MSTORE PUSH1 0x4 ADD PUSH2 0xDE7 SWAP4 SWAP3 SWAP2 SWAP1 PUSH2 0x24E1 JUMP JUMPDEST PUSH1 0x20 PUSH1 0x40 MLOAD DUP1 DUP4 SUB DUP2 PUSH1 0x0 DUP8 GAS CALL ISZERO DUP1 ISZERO PUSH2 0xE06 JUMPI RETURNDATASIZE PUSH1 0x0 DUP1 RETURNDATACOPY RETURNDATASIZE PUSH1 0x0 REVERT JUMPDEST POP POP POP POP PUSH1 0x40 MLOAD RETURNDATASIZE PUSH1 0x1F NOT PUSH1 0x1F DUP3 ADD AND DUP3 ADD DUP1 PUSH1 0x40 MSTORE POP DUP2 ADD SWAP1 PUSH2 0xE2A SWAP2 SWAP1 PUSH2 0x2448 JUMP JUMPDEST POP PUSH1 0x0 PUSH2 0xE5B PUSH1 0x5 SLOAD PUSH2 0xE4D PUSH2 0xE3E PUSH2 0x6AE JUMP JUMPDEST DUP8 PUSH2 0x153C SWAP1 SWAP2 SWAP1 PUSH4 0xFFFFFFFF AND JUMP JUMPDEST PUSH2 0x15B6 SWAP1 SWAP2 SWAP1 PUSH4 0xFFFFFFFF AND JUMP JUMPDEST SWAP1 POP PUSH2 0xE67 CALLER DUP3 PUSH2 0x1911 JUMP JUMPDEST PUSH32 0xA3785C319657C7E30E3A27221716188508552382BF92AA9E6778D1190FDEF7ED DUP5 DUP5 PUSH1 0x40 MLOAD PUSH2 0xE98 SWAP3 SWAP2 SWAP1 PUSH2 0x1E38 JUMP JUMPDEST PUSH1 0x40 MLOAD DUP1 SWAP2 SUB SWAP1 LOG1 POP POP JUMPDEST PUSH2 0xEAB PUSH2 0x17AA JUMP JUMPDEST POP POP JUMP JUMPDEST PUSH1 0x0 DUP1 PUSH2 0xEBA PUSH2 0x1522 JUMP JUMPDEST SWAP1 POP PUSH2 0xEC7 DUP2 DUP6 DUP6 PUSH2 0x16A8 JUMP JUMPDEST PUSH1 0x1 SWAP2 POP POP SWAP3 SWAP2 POP POP JUMP JUMPDEST PUSH1 0x0 PUSH32 0x0 SWAP1 POP SWAP1 JUMP JUMPDEST PUSH1 0x0 DUP3 GT PUSH2 0xF0B JUMPI PUSH1 0x0 DUP2 GT PUSH2 0xF10 JUMP JUMPDEST PUSH1 0x0 DUP2 EQ JUMPDEST PUSH2 0xF4F JUMPI PUSH1 0x40 MLOAD PUSH32 0x8C379A000000000000000000000000000000000000000000000000000000000 DUP2 MSTORE PUSH1 0x4 ADD PUSH2 0xF46 SWAP1 PUSH2 0x27E5 JUMP JUMPDEST PUSH1 0x40 MLOAD DUP1 SWAP2 SUB SWAP1 REVERT JUMPDEST PUSH1 0x0 DUP3 GT ISZERO PUSH2 0x11DC JUMPI PUSH1 0x0 PUSH2 0xF8B PUSH2 0x3E8 PUSH2 0xF7D PUSH2 0x3E3 PUSH2 0xF6F DUP8 PUSH2 0x9AC JUMP JUMPDEST PUSH2 0x153C SWAP1 SWAP2 SWAP1 PUSH4 0xFFFFFFFF AND JUMP JUMPDEST PUSH2 0x15B6 SWAP1 SWAP2 SWAP1 PUSH4 0xFFFFFFFF AND JUMP JUMPDEST SWAP1 POP PUSH1 0x6 SLOAD DUP2 LT PUSH2 0xFD1 JUMPI PUSH1 0x40 MLOAD PUSH32 0x8C379A000000000000000000000000000000000000000000000000000000000 DUP2 MSTORE PUSH1 0x4 ADD PUSH2 0xFC8 SWAP1 PUSH2 0x2851 JUMP JUMPDEST PUSH1 0x40 MLOAD DUP1 SWAP2 SUB SWAP1 REVERT JUMPDEST PUSH1 0x0 PUSH32 0x0 PUSH20 0xFFFFFFFFFFFFFFFFFFFFFFFFFFFFFFFFFFFFFFFF AND PUSH4 0x23B872DD CALLER ADDRESS DUP8 PUSH1 0x40 MLOAD DUP5 PUSH4 0xFFFFFFFF AND PUSH1 0xE0 SHL DUP2 MSTORE PUSH1 0x4 ADD PUSH2 0x1030 SWAP4 SWAP3 SWAP2 SWAP1 PUSH2 0x24E1 JUMP JUMPDEST PUSH1 0x20 PUSH1 0x40 MLOAD DUP1 DUP4 SUB DUP2 PUSH1 0x0 DUP8 GAS CALL ISZERO DUP1 ISZERO PUSH2 0x104F JUMPI RETURNDATASIZE PUSH1 0x0 DUP1 RETURNDATACOPY RETURNDATASIZE PUSH1 0x0 REVERT JUMPDEST POP POP POP POP PUSH1 0x40 MLOAD RETURNDATASIZE PUSH1 0x1F NOT PUSH1 0x1F DUP3 ADD AND DUP3 ADD DUP1 PUSH1 0x40 MSTORE POP DUP2 ADD SWAP1 PUSH2 0x1073 SWAP2 SWAP1 PUSH2 0x2448 JUMP JUMPDEST SWAP1 POP DUP1 PUSH2 0x10B5 JUMPI PUSH1 0x40 MLOAD PUSH32 0x8C379A000000000000000000000000000000000000000000000000000000000 DUP2 MSTORE PUSH1 0x4 ADD PUSH2 0x10AC SWAP1 PUSH2 0x27E5 JUMP JUMPDEST PUSH1 0x40 MLOAD DUP1 SWAP2 SUB SWAP1 REVERT JUMPDEST PUSH32 0x0 PUSH20 0xFFFFFFFFFFFFFFFFFFFFFFFFFFFFFFFFFFFFFFFF AND PUSH4 0xA9059CBB CALLER DUP5 PUSH1 0x40 MLOAD DUP4 PUSH4 0xFFFFFFFF AND PUSH1 0xE0 SHL DUP2 MSTORE PUSH1 0x4 ADD PUSH2 0x1110 SWAP3 SWAP2 SWAP1 PUSH2 0x23F3 JUMP JUMPDEST PUSH1 0x20 PUSH1 0x40 MLOAD DUP1 DUP4 SUB DUP2 PUSH1 0x0 DUP8 GAS CALL ISZERO DUP1 ISZERO PUSH2 0x112F JUMPI RETURNDATASIZE PUSH1 0x0 DUP1 RETURNDATACOPY RETURNDATASIZE PUSH1 0x0 REVERT JUMPDEST POP POP POP POP PUSH1 0x40 MLOAD RETURNDATASIZE PUSH1 0x1F NOT PUSH1 0x1F DUP3 ADD AND DUP3 ADD DUP1 PUSH1 0x40 MSTORE POP DUP2 ADD SWAP1 PUSH2 0x1153 SWAP2 SWAP1 PUSH2 0x2448 JUMP JUMPDEST POP PUSH2 0x115C PUSH2 0x17AA JUMP JUMPDEST PUSH32 0xFA2DDA1CC1B86E41239702756B13EFFBC1A092B5C57E3AD320FBE4F3B13FE235 PUSH32 0x0 PUSH32 0x0 DUP7 DUP6 PUSH1 0x40 MLOAD PUSH2 0x11D1 SWAP5 SWAP4 SWAP3 SWAP2 SWAP1 PUSH2 0x2871 JUMP JUMPDEST PUSH1 0x40 MLOAD DUP1 SWAP2 SUB SWAP1 LOG1 POP POP JUMPDEST PUSH1 0x0 DUP2 GT ISZERO PUSH2 0x1469 JUMPI PUSH1 0x0 PUSH2 0x1218 PUSH2 0x3E8 PUSH2 0x120A PUSH2 0x3E3 PUSH2 0x11FC DUP7 PUSH2 0x654 JUMP JUMPDEST PUSH2 0x153C SWAP1 SWAP2 SWAP1 PUSH4 0xFFFFFFFF AND JUMP JUMPDEST PUSH2 0x15B6 SWAP1 SWAP2 SWAP1 PUSH4 0xFFFFFFFF AND JUMP JUMPDEST SWAP1 POP PUSH1 0x5 SLOAD DUP2 LT PUSH2 0x125E JUMPI PUSH1 0x40 MLOAD PUSH32 0x8C379A000000000000000000000000000000000000000000000000000000000 DUP2 MSTORE PUSH1 0x4 ADD PUSH2 0x1255 SWAP1 PUSH2 0x2851 JUMP JUMPDEST PUSH1 0x40 MLOAD DUP1 SWAP2 SUB SWAP1 REVERT JUMPDEST PUSH1 0x0 PUSH32 0x0 PUSH20 0xFFFFFFFFFFFFFFFFFFFFFFFFFFFFFFFFFFFFFFFF AND PUSH4 0x23B872DD CALLER ADDRESS DUP7 PUSH1 0x40 MLOAD DUP5 PUSH4 0xFFFFFFFF AND PUSH1 0xE0 SHL DUP2 MSTORE PUSH1 0x4 ADD PUSH2 0x12BD SWAP4 SWAP3 SWAP2 SWAP1 PUSH2 0x24E1 JUMP JUMPDEST PUSH1 0x20 PUSH1 0x40 MLOAD DUP1 DUP4 SUB DUP2 PUSH1 0x0 DUP8 GAS CALL ISZERO DUP1 ISZERO PUSH2 0x12DC JUMPI RETURNDATASIZE PUSH1 0x0 DUP1 RETURNDATACOPY RETURNDATASIZE PUSH1 0x0 REVERT JUMPDEST POP POP POP POP PUSH1 0x40 MLOAD RETURNDATASIZE PUSH1 0x1F NOT PUSH1 0x1F DUP3 ADD AND DUP3 ADD DUP1 PUSH1 0x40 MSTORE POP DUP2 ADD SWAP1 PUSH2 0x1300 SWAP2 SWAP1 PUSH2 0x2448 JUMP JUMPDEST SWAP1 POP DUP1 PUSH2 0x1342 JUMPI PUSH1 0x40 MLOAD PUSH32 0x8C379A000000000000000000000000000000000000000000000000000000000 DUP2 MSTORE PUSH1 0x4 ADD PUSH2 0x1339 SWAP1 PUSH2 0x27E5 JUMP JUMPDEST PUSH1 0x40 MLOAD DUP1 SWAP2 SUB SWAP1 REVERT JUMPDEST PUSH32 0x0 PUSH20 0xFFFFFFFFFFFFFFFFFFFFFFFFFFFFFFFFFFFFFFFF AND PUSH4 0xA9059CBB CALLER DUP5 PUSH1 0x40 MLOAD DUP4 PUSH4 0xFFFFFFFF AND PUSH1 0xE0 SHL DUP2 MSTORE PUSH1 0x4 ADD PUSH2 0x139D SWAP3 SWAP2 SWAP1 PUSH2 0x23F3 JUMP JUMPDEST PUSH1 0x20 PUSH1 0x40 MLOAD DUP1 DUP4 SUB DUP2 PUSH1 0x0 DUP8 GAS CALL ISZERO DUP1 ISZERO PUSH2 0x13BC JUMPI RETURNDATASIZE PUSH1 0x0 DUP1 RETURNDATACOPY RETURNDATASIZE PUSH1 0x0 REVERT JUMPDEST POP POP POP POP PUSH1 0x40 MLOAD RETURNDATASIZE PUSH1 0x1F NOT PUSH1 0x1F DUP3 ADD AND DUP3 ADD DUP1 PUSH1 0x40 MSTORE POP DUP2 ADD SWAP1 PUSH2 0x13E0 SWAP2 SWAP1 PUSH2 0x2448 JUMP JUMPDEST POP PUSH2 0x13E9 PUSH2 0x17AA JUMP JUMPDEST PUSH32 0xFA2DDA1CC1B86E41239702756B13EFFBC1A092B5C57E3AD320FBE4F3B13FE235 PUSH32 0x0 PUSH32 0x0 DUP6 DUP6 PUSH1 0x40 MLOAD PUSH2 0x145E SWAP5 SWAP4 SWAP3 SWAP2 SWAP1 PUSH2 0x2871 JUMP JUMPDEST PUSH1 0x40 MLOAD DUP1 SWAP2 SUB SWAP1 LOG1 POP POP JUMPDEST POP POP JUMP JUMPDEST PUSH1 0x0 PUSH1 0x1 PUSH1 0x0 DUP5 PUSH20 0xFFFFFFFFFFFFFFFFFFFFFFFFFFFFFFFFFFFFFFFF AND PUSH20 0xFFFFFFFFFFFFFFFFFFFFFFFFFFFFFFFFFFFFFFFF AND DUP2 MSTORE PUSH1 0x20 ADD SWAP1 DUP2 MSTORE PUSH1 0x20 ADD PUSH1 0x0 KECCAK256 PUSH1 0x0 DUP4 PUSH20 0xFFFFFFFFFFFFFFFFFFFFFFFFFFFFFFFFFFFFFFFF AND PUSH20 0xFFFFFFFFFFFFFFFFFFFFFFFFFFFFFFFFFFFFFFFF AND DUP2 MSTORE PUSH1 0x20 ADD SWAP1 DUP2 MSTORE PUSH1 0x20 ADD PUSH1 0x0 KECCAK256 SLOAD SWAP1 POP SWAP3 SWAP2 POP POP JUMP JUMPDEST PUSH1 0x0 PUSH1 0x7 SLOAD SWAP1 POP SWAP1 JUMP JUMPDEST PUSH32 0x0 DUP2 JUMP JUMPDEST PUSH1 0x0 CALLER SWAP1 POP SWAP1 JUMP JUMPDEST PUSH2 0x1537 DUP4 DUP4 DUP4 PUSH1 0x1 PUSH2 0x191F JUMP JUMPDEST POP POP POP JUMP JUMPDEST PUSH1 0x0 DUP1 DUP4 SUB PUSH2 0x154E JUMPI PUSH1 0x0 SWAP1 POP PUSH2 0x15B0 JUMP JUMPDEST PUSH1 0x0 DUP3 DUP5 PUSH2 0x155C SWAP2 SWAP1 PUSH2 0x26C5 JUMP JUMPDEST SWAP1 POP DUP3 DUP5 DUP3 PUSH2 0x156B SWAP2 SWAP1 PUSH2 0x28E5 JUMP JUMPDEST EQ PUSH2 0x15AB JUMPI PUSH1 0x40 MLOAD PUSH32 0x8C379A000000000000000000000000000000000000000000000000000000000 DUP2 MSTORE PUSH1 0x4 ADD PUSH2 0x15A2 SWAP1 PUSH2 0x2988 JUMP JUMPDEST PUSH1 0x40 MLOAD DUP1 SWAP2 SUB SWAP1 REVERT JUMPDEST DUP1 SWAP2 POP POP JUMPDEST SWAP3 SWAP2 POP POP JUMP JUMPDEST PUSH1 0x0 DUP1 DUP3 GT PUSH2 0x15FA JUMPI PUSH1 0x40 MLOAD PUSH32 0x8C379A000000000000000000000000000000000000000000000000000000000 DUP2 MSTORE PUSH1 0x4 ADD PUSH2 0x15F1 SWAP1 PUSH2 0x29F4 JUMP JUMPDEST PUSH1 0x40 MLOAD DUP1 SWAP2 SUB SWAP1 REVERT JUMPDEST PUSH1 0x0 DUP3 DUP5 PUSH2 0x1608 SWAP2 SWAP1 PUSH2 0x28E5 JUMP JUMPDEST SWAP1 POP DUP1 SWAP2 POP POP SWAP3 SWAP2 POP POP JUMP JUMPDEST PUSH1 0x0 PUSH2 0x1620 DUP5 DUP5 PUSH2 0x146D JUMP JUMPDEST SWAP1 POP PUSH32 0xFFFFFFFFFFFFFFFFFFFFFFFFFFFFFFFFFFFFFFFFFFFFFFFFFFFFFFFFFFFFFFFF DUP2 EQ PUSH2 0x16A2 JUMPI DUP2 DUP2 LT ISZERO PUSH2 0x1692 JUMPI DUP3 DUP2 DUP4 PUSH1 0x40 MLOAD PUSH32 0xFB8F41B200000000000000000000000000000000000000000000000000000000 DUP2 MSTORE PUSH1 0x4 ADD PUSH2 0x1689 SWAP4 SWAP3 SWAP2 SWAP1 PUSH2 0x2A14 JUMP JUMPDEST PUSH1 0x40 MLOAD DUP1 SWAP2 SUB SWAP1 REVERT JUMPDEST PUSH2 0x16A1 DUP5 DUP5 DUP5 DUP5 SUB PUSH1 0x0 PUSH2 0x191F JUMP JUMPDEST JUMPDEST POP POP POP POP JUMP JUMPDEST PUSH1 0x0 PUSH20 0xFFFFFFFFFFFFFFFFFFFFFFFFFFFFFFFFFFFFFFFF AND DUP4 PUSH20 0xFFFFFFFFFFFFFFFFFFFFFFFFFFFFFFFFFFFFFFFF AND SUB PUSH2 0x171A JUMPI PUSH1 0x0 PUSH1 0x40 MLOAD PUSH32 0x96C6FD1E00000000000000000000000000000000000000000000000000000000 DUP2 MSTORE PUSH1 0x4 ADD PUSH2 0x1711 SWAP2 SWAP1 PUSH2 0x1EA2 JUMP JUMPDEST PUSH1 0x40 MLOAD DUP1 SWAP2 SUB SWAP1 REVERT JUMPDEST PUSH1 0x0 PUSH20 0xFFFFFFFFFFFFFFFFFFFFFFFFFFFFFFFFFFFFFFFF AND DUP3 PUSH20 0xFFFFFFFFFFFFFFFFFFFFFFFFFFFFFFFFFFFFFFFF AND SUB PUSH2 0x178C JUMPI PUSH1 0x0 PUSH1 0x40 MLOAD PUSH32 0xEC442F0500000000000000000000000000000000000000000000000000000000 DUP2 MSTORE PUSH1 0x4 ADD PUSH2 0x1783 SWAP2 SWAP1 PUSH2 0x1EA2 JUMP JUMPDEST PUSH1 0x40 MLOAD DUP1 SWAP2 SUB SWAP1 REVERT JUMPDEST PUSH2 0x1797 DUP4 DUP4 DUP4 PUSH2 0x1AF6 JUMP JUMPDEST POP POP POP JUMP JUMPDEST PUSH2 0x17A6 DUP3 DUP3 PUSH2 0x1D1B JUMP JUMPDEST POP POP JUMP JUMPDEST PUSH1 0x0 PUSH32 0x0 PUSH20 0xFFFFFFFFFFFFFFFFFFFFFFFFFFFFFFFFFFFFFFFF AND PUSH4 0x70A08231 ADDRESS PUSH1 0x40 MLOAD DUP3 PUSH4 0xFFFFFFFF AND PUSH1 0xE0 SHL DUP2 MSTORE PUSH1 0x4 ADD PUSH2 0x1805 SWAP2 SWAP1 PUSH2 0x1EA2 JUMP JUMPDEST PUSH1 0x20 PUSH1 0x40 MLOAD DUP1 DUP4 SUB DUP2 DUP7 GAS STATICCALL ISZERO DUP1 ISZERO PUSH2 0x1822 JUMPI RETURNDATASIZE PUSH1 0x0 DUP1 RETURNDATACOPY RETURNDATASIZE PUSH1 0x0 REVERT JUMPDEST POP POP POP POP PUSH1 0x40 MLOAD RETURNDATASIZE PUSH1 0x1F NOT PUSH1 0x1F DUP3 ADD AND DUP3 ADD DUP1 PUSH1 0x40 MSTORE POP DUP2 ADD SWAP1 PUSH2 0x1846 SWAP2 SWAP1 PUSH2 0x21D6 JUMP JUMPDEST SWAP1 POP PUSH1 0x0 PUSH32 0x0 PUSH20 0xFFFFFFFFFFFFFFFFFFFFFFFFFFFFFFFFFFFFFFFF AND PUSH4 0x70A08231 ADDRESS PUSH1 0x40 MLOAD DUP3 PUSH4 0xFFFFFFFF AND PUSH1 0xE0 SHL DUP2 MSTORE PUSH1 0x4 ADD PUSH2 0x18A3 SWAP2 SWAP1 PUSH2 0x1EA2 JUMP JUMPDEST PUSH1 0x20 PUSH1 0x40 MLOAD DUP1 DUP4 SUB DUP2 DUP7 GAS STATICCALL ISZERO DUP1 ISZERO PUSH2 0x18C0 JUMPI RETURNDATASIZE PUSH1 0x0 DUP1 RETURNDATACOPY RETURNDATASIZE PUSH1 0x0 REVERT JUMPDEST POP POP POP POP PUSH1 0x40 MLOAD RETURNDATASIZE PUSH1 0x1F NOT PUSH1 0x1F DUP3 ADD AND DUP3 ADD DUP1 PUSH1 0x40 MSTORE POP DUP2 ADD SWAP1 PUSH2 0x18E4 SWAP2 SWAP1 PUSH2 0x21D6 JUMP JUMPDEST SWAP1 POP DUP2 PUSH1 0x5 DUP2 SWAP1 SSTORE POP DUP1 PUSH1 0x6 DUP2 SWAP1 SSTORE POP PUSH2 0x1907 DUP2 DUP4 PUSH2 0x153C SWAP1 SWAP2 SWAP1 PUSH4 0xFFFFFFFF AND JUMP JUMPDEST PUSH1 0x7 DUP2 SWAP1 SSTORE POP POP POP JUMP JUMPDEST PUSH2 0x191B DUP3 DUP3 PUSH2 0x1D9D JUMP JUMPDEST POP POP JUMP JUMPDEST PUSH1 0x0 PUSH20 0xFFFFFFFFFFFFFFFFFFFFFFFFFFFFFFFFFFFFFFFF AND DUP5 PUSH20 0xFFFFFFFFFFFFFFFFFFFFFFFFFFFFFFFFFFFFFFFF AND SUB PUSH2 0x1991 JUMPI PUSH1 0x0 PUSH1 0x40 MLOAD PUSH32 0xE602DF0500000000000000000000000000000000000000000000000000000000 DUP2 MSTORE PUSH1 0x4 ADD PUSH2 0x1988 SWAP2 SWAP1 PUSH2 0x1EA2 JUMP JUMPDEST PUSH1 0x40 MLOAD DUP1 SWAP2 SUB SWAP1 REVERT JUMPDEST PUSH1 0x0 PUSH20 0xFFFFFFFFFFFFFFFFFFFFFFFFFFFFFFFFFFFFFFFF AND DUP4 PUSH20 0xFFFFFFFFFFFFFFFFFFFFFFFFFFFFFFFFFFFFFFFF AND SUB PUSH2 0x1A03 JUMPI PUSH1 0x0 PUSH1 0x40 MLOAD PUSH32 0x94280D6200000000000000000000000000000000000000000000000000000000 DUP2 MSTORE PUSH1 0x4 ADD PUSH2 0x19FA SWAP2 SWAP1 PUSH2 0x1EA2 JUMP JUMPDEST PUSH1 0x40 MLOAD DUP1 SWAP2 SUB SWAP1 REVERT JUMPDEST DUP2 PUSH1 0x1 PUSH1 0x0 DUP7 PUSH20 0xFFFFFFFFFFFFFFFFFFFFFFFFFFFFFFFFFFFFFFFF AND PUSH20 0xFFFFFFFFFFFFFFFFFFFFFFFFFFFFFFFFFFFFFFFF AND DUP2 MSTORE PUSH1 0x20 ADD SWAP1 DUP2 MSTORE PUSH1 0x20 ADD PUSH1 0x0 KECCAK256 PUSH1 0x0 DUP6 PUSH20 0xFFFFFFFFFFFFFFFFFFFFFFFFFFFFFFFFFFFFFFFF AND PUSH20 0xFFFFFFFFFFFFFFFFFFFFFFFFFFFFFFFFFFFFFFFF AND DUP2 MSTORE PUSH1 0x20 ADD SWAP1 DUP2 MSTORE PUSH1 0x20 ADD PUSH1 0x0 KECCAK256 DUP2 SWAP1 SSTORE POP DUP1 ISZERO PUSH2 0x1AF0 JUMPI DUP3 PUSH20 0xFFFFFFFFFFFFFFFFFFFFFFFFFFFFFFFFFFFFFFFF AND DUP5 PUSH20 0xFFFFFFFFFFFFFFFFFFFFFFFFFFFFFFFFFFFFFFFF AND PUSH32 0x8C5BE1E5EBEC7D5BD14F71427D1E84F3DD0314C0F7B2291E5B200AC8C7C3B925 DUP5 PUSH1 0x40 MLOAD PUSH2 0x1AE7 SWAP2 SWAP1 PUSH2 0x206F JUMP JUMPDEST PUSH1 0x40 MLOAD DUP1 SWAP2 SUB SWAP1 LOG3 JUMPDEST POP POP POP POP JUMP JUMPDEST PUSH1 0x0 PUSH20 0xFFFFFFFFFFFFFFFFFFFFFFFFFFFFFFFFFFFFFFFF AND DUP4 PUSH20 0xFFFFFFFFFFFFFFFFFFFFFFFFFFFFFFFFFFFFFFFF AND SUB PUSH2 0x1B48 JUMPI DUP1 PUSH1 0x2 PUSH1 0x0 DUP3 DUP3 SLOAD PUSH2 0x1B3C SWAP2 SWAP1 PUSH2 0x2A4B JUMP JUMPDEST SWAP3 POP POP DUP2 SWAP1 SSTORE POP PUSH2 0x1C1B JUMP JUMPDEST PUSH1 0x0 DUP1 PUSH1 0x0 DUP6 PUSH20 0xFFFFFFFFFFFFFFFFFFFFFFFFFFFFFFFFFFFFFFFF AND PUSH20 0xFFFFFFFFFFFFFFFFFFFFFFFFFFFFFFFFFFFFFFFF AND DUP2 MSTORE PUSH1 0x20 ADD SWAP1 DUP2 MSTORE PUSH1 0x20 ADD PUSH1 0x0 KECCAK256 SLOAD SWAP1 POP DUP2 DUP2 LT ISZERO PUSH2 0x1BD4 JUMPI DUP4 DUP2 DUP4 PUSH1 0x40 MLOAD PUSH32 0xE450D38C00000000000000000000000000000000000000000000000000000000 DUP2 MSTORE PUSH1 0x4 ADD PUSH2 0x1BCB SWAP4 SWAP3 SWAP2 SWAP1 PUSH2 0x2A14 JUMP JUMPDEST PUSH1 0x40 MLOAD DUP1 SWAP2 SUB SWAP1 REVERT JUMPDEST DUP2 DUP2 SUB PUSH1 0x0 DUP1 DUP7 PUSH20 0xFFFFFFFFFFFFFFFFFFFFFFFFFFFFFFFFFFFFFFFF AND PUSH20 0xFFFFFFFFFFFFFFFFFFFFFFFFFFFFFFFFFFFFFFFF AND DUP2 MSTORE PUSH1 0x20 ADD SWAP1 DUP2 MSTORE PUSH1 0x20 ADD PUSH1 0x0 KECCAK256 DUP2 SWAP1 SSTORE POP POP JUMPDEST PUSH1 0x0 PUSH20 0xFFFFFFFFFFFFFFFFFFFFFFFFFFFFFFFFFFFFFFFF AND DUP3 PUSH20 0xFFFFFFFFFFFFFFFFFFFFFFFFFFFFFFFFFFFFFFFF AND SUB PUSH2 0x1C64 JUMPI DUP1 PUSH1 0x2 PUSH1 0x0 DUP3 DUP3 SLOAD SUB SWAP3 POP POP DUP2 SWAP1 SSTORE POP PUSH2 0x1CB1 JUMP JUMPDEST DUP1 PUSH1 0x0 DUP1 DUP5 PUSH20 0xFFFFFFFFFFFFFFFFFFFFFFFFFFFFFFFFFFFFFFFF AND PUSH20 0xFFFFFFFFFFFFFFFFFFFFFFFFFFFFFFFFFFFFFFFF AND DUP2 MSTORE PUSH1 0x20 ADD SWAP1 DUP2 MSTORE PUSH1 0x20 ADD PUSH1 0x0 KECCAK256 PUSH1 0x0 DUP3 DUP3 SLOAD ADD SWAP3 POP POP DUP2 SWAP1 SSTORE POP JUMPDEST DUP2 PUSH20 0xFFFFFFFFFFFFFFFFFFFFFFFFFFFFFFFFFFFFFFFF AND DUP4 PUSH20 0xFFFFFFFFFFFFFFFFFFFFFFFFFFFFFFFFFFFFFFFF AND PUSH32 0xDDF252AD1BE2C89B69C2B068FC378DAA952BA7F163C4A11628F55A4DF523B3EF DUP4 PUSH1 0x40 MLOAD PUSH2 0x1D0E SWAP2 SWAP1 PUSH2 0x206F JUMP JUMPDEST PUSH1 0x40 MLOAD DUP1 SWAP2 SUB SWAP1 LOG3 POP POP POP JUMP JUMPDEST PUSH1 0x0 PUSH20 0xFFFFFFFFFFFFFFFFFFFFFFFFFFFFFFFFFFFFFFFF AND DUP3 PUSH20 0xFFFFFFFFFFFFFFFFFFFFFFFFFFFFFFFFFFFFFFFF AND SUB PUSH2 0x1D8D JUMPI PUSH1 0x0 PUSH1 0x40 MLOAD PUSH32 0x96C6FD1E00000000000000000000000000000000000000000000000000000000 DUP2 MSTORE PUSH1 0x4 ADD PUSH2 0x1D84 SWAP2 SWAP1 PUSH2 0x1EA2 JUMP JUMPDEST PUSH1 0x40 MLOAD DUP1 SWAP2 SUB SWAP1 REVERT JUMPDEST PUSH2 0x1D99 DUP3 PUSH1 0x0 DUP4 PUSH2 0x1AF6 JUMP JUMPDEST POP POP JUMP JUMPDEST PUSH1 0x0 PUSH20 0xFFFFFFFFFFFFFFFFFFFFFFFFFFFFFFFFFFFFFFFF AND DUP3 PUSH20 0xFFFFFFFFFFFFFFFFFFFFFFFFFFFFFFFFFFFFFFFF AND SUB PUSH2 0x1E0F JUMPI PUSH1 0x0 PUSH1 0x40 MLOAD PUSH32 0xEC442F0500000000000000000000000000000000000000000000000000000000 DUP2 MSTORE PUSH1 0x4 ADD PUSH2 0x1E06 SWAP2 SWAP1 PUSH2 0x1EA2 JUMP JUMPDEST PUSH1 0x40 MLOAD DUP1 SWAP2 SUB SWAP1 REVERT JUMPDEST PUSH2 0x1E1B PUSH1 0x0 DUP4 DUP4 PUSH2 0x1AF6 JUMP JUMPDEST POP POP JUMP JUMPDEST PUSH1 0x0 DUP2 SWAP1 POP SWAP2 SWAP1 POP JUMP JUMPDEST PUSH2 0x1E32 DUP2 PUSH2 0x1E1F JUMP JUMPDEST DUP3 MSTORE POP POP JUMP JUMPDEST PUSH1 0x0 PUSH1 0x40 DUP3 ADD SWAP1 POP PUSH2 0x1E4D PUSH1 0x0 DUP4 ADD DUP6 PUSH2 0x1E29 JUMP JUMPDEST PUSH2 0x1E5A PUSH1 0x20 DUP4 ADD DUP5 PUSH2 0x1E29 JUMP JUMPDEST SWAP4 SWAP3 POP POP POP JUMP JUMPDEST PUSH1 0x0 PUSH20 0xFFFFFFFFFFFFFFFFFFFFFFFFFFFFFFFFFFFFFFFF DUP3 AND SWAP1 POP SWAP2 SWAP1 POP JUMP JUMPDEST PUSH1 0x0 PUSH2 0x1E8C DUP3 PUSH2 0x1E61 JUMP JUMPDEST SWAP1 POP SWAP2 SWAP1 POP JUMP JUMPDEST PUSH2 0x1E9C DUP2 PUSH2 0x1E81 JUMP JUMPDEST DUP3 MSTORE POP POP JUMP JUMPDEST PUSH1 0x0 PUSH1 0x20 DUP3 ADD SWAP1 POP PUSH2 0x1EB7 PUSH1 0x0 DUP4 ADD DUP5 PUSH2 0x1E93 JUMP JUMPDEST SWAP3 SWAP2 POP POP JUMP JUMPDEST PUSH1 0x0 DUP2 MLOAD SWAP1 POP SWAP2 SWAP1 POP JUMP JUMPDEST PUSH1 0x0 DUP3 DUP3 MSTORE PUSH1 0x20 DUP3 ADD SWAP1 POP SWAP3 SWAP2 POP POP JUMP JUMPDEST PUSH1 0x0 JUMPDEST DUP4 DUP2 LT ISZERO PUSH2 0x1EF7 JUMPI DUP1 DUP3 ADD MLOAD DUP2 DUP5 ADD MSTORE PUSH1 0x20 DUP2 ADD SWAP1 POP PUSH2 0x1EDC JUMP JUMPDEST PUSH1 0x0 DUP5 DUP5 ADD MSTORE POP POP POP POP JUMP JUMPDEST PUSH1 0x0 PUSH1 0x1F NOT PUSH1 0x1F DUP4 ADD AND SWAP1 POP SWAP2 SWAP1 POP JUMP JUMPDEST PUSH1 0x0 PUSH2 0x1F1F DUP3 PUSH2 0x1EBD JUMP JUMPDEST PUSH2 0x1F29 DUP2 DUP6 PUSH2 0x1EC8 JUMP JUMPDEST SWAP4 POP PUSH2 0x1F39 DUP2 DUP6 PUSH1 0x20 DUP7 ADD PUSH2 0x1ED9 JUMP JUMPDEST PUSH2 0x1F42 DUP2 PUSH2 0x1F03 JUMP JUMPDEST DUP5 ADD SWAP2 POP POP SWAP3 SWAP2 POP POP JUMP JUMPDEST PUSH1 0x0 PUSH1 0x20 DUP3 ADD SWAP1 POP DUP2 DUP2 SUB PUSH1 0x0 DUP4 ADD MSTORE PUSH2 0x1F67 DUP2 DUP5 PUSH2 0x1F14 JUMP JUMPDEST SWAP1 POP SWAP3 SWAP2 POP POP JUMP JUMPDEST PUSH1 0x0 DUP1 REVERT JUMPDEST PUSH2 0x1F7D DUP2 PUSH2 0x1E81 JUMP JUMPDEST DUP2 EQ PUSH2 0x1F88 JUMPI PUSH1 0x0 DUP1 REVERT JUMPDEST POP JUMP JUMPDEST PUSH1 0x0 DUP2 CALLDATALOAD SWAP1 POP PUSH2 0x1F9A DUP2 PUSH2 0x1F74 JUMP JUMPDEST SWAP3 SWAP2 POP POP JUMP JUMPDEST PUSH2 0x1FA9 DUP2 PUSH2 0x1E1F JUMP JUMPDEST DUP2 EQ PUSH2 0x1FB4 JUMPI PUSH1 0x0 DUP1 REVERT JUMPDEST POP JUMP JUMPDEST PUSH1 0x0 DUP2 CALLDATALOAD SWAP1 POP PUSH2 0x1FC6 DUP2 PUSH2 0x1FA0 JUMP JUMPDEST SWAP3 SWAP2 POP POP JUMP JUMPDEST PUSH1 0x0 DUP1 PUSH1 0x40 DUP4 DUP6 SUB SLT ISZERO PUSH2 0x1FE3 JUMPI PUSH2 0x1FE2 PUSH2 0x1F6F JUMP JUMPDEST JUMPDEST PUSH1 0x0 PUSH2 0x1FF1 DUP6 DUP3 DUP7 ADD PUSH2 0x1F8B JUMP JUMPDEST SWAP3 POP POP PUSH1 0x20 PUSH2 0x2002 DUP6 DUP3 DUP7 ADD PUSH2 0x1FB7 JUMP JUMPDEST SWAP2 POP POP SWAP3 POP SWAP3 SWAP1 POP JUMP JUMPDEST PUSH1 0x0 DUP2 ISZERO ISZERO SWAP1 POP SWAP2 SWAP1 POP JUMP JUMPDEST PUSH2 0x2021 DUP2 PUSH2 0x200C JUMP JUMPDEST DUP3 MSTORE POP POP JUMP JUMPDEST PUSH1 0x0 PUSH1 0x20 DUP3 ADD SWAP1 POP PUSH2 0x203C PUSH1 0x0 DUP4 ADD DUP5 PUSH2 0x2018 JUMP JUMPDEST SWAP3 SWAP2 POP POP JUMP JUMPDEST PUSH1 0x0 PUSH1 0x20 DUP3 DUP5 SUB SLT ISZERO PUSH2 0x2058 JUMPI PUSH2 0x2057 PUSH2 0x1F6F JUMP JUMPDEST JUMPDEST PUSH1 0x0 PUSH2 0x2066 DUP5 DUP3 DUP6 ADD PUSH2 0x1FB7 JUMP JUMPDEST SWAP2 POP POP SWAP3 SWAP2 POP POP JUMP JUMPDEST PUSH1 0x0 PUSH1 0x20 DUP3 ADD SWAP1 POP PUSH2 0x2084 PUSH1 0x0 DUP4 ADD DUP5 PUSH2 0x1E29 JUMP JUMPDEST SWAP3 SWAP2 POP POP JUMP JUMPDEST PUSH1 0x0 DUP1 PUSH1 0x0 PUSH1 0x60 DUP5 DUP7 SUB SLT ISZERO PUSH2 0x20A3 JUMPI PUSH2 0x20A2 PUSH2 0x1F6F JUMP JUMPDEST JUMPDEST PUSH1 0x0 PUSH2 0x20B1 DUP7 DUP3 DUP8 ADD PUSH2 0x1F8B JUMP JUMPDEST SWAP4 POP POP PUSH1 0x20 PUSH2 0x20C2 DUP7 DUP3 DUP8 ADD PUSH2 0x1F8B JUMP JUMPDEST SWAP3 POP POP PUSH1 0x40 PUSH2 0x20D3 DUP7 DUP3 DUP8 ADD PUSH2 0x1FB7 JUMP JUMPDEST SWAP2 POP POP SWAP3 POP SWAP3 POP SWAP3 JUMP JUMPDEST PUSH1 0x0 PUSH1 0xFF DUP3 AND SWAP1 POP SWAP2 SWAP1 POP JUMP JUMPDEST PUSH2 0x20F3 DUP2 PUSH2 0x20DD JUMP JUMPDEST DUP3 MSTORE POP POP JUMP JUMPDEST PUSH1 0x0 PUSH1 0x20 DUP3 ADD SWAP1 POP PUSH2 0x210E PUSH1 0x0 DUP4 ADD DUP5 PUSH2 0x20EA JUMP JUMPDEST SWAP3 SWAP2 POP POP JUMP JUMPDEST PUSH1 0x0 DUP1 PUSH1 0x40 DUP4 DUP6 SUB SLT ISZERO PUSH2 0x212B JUMPI PUSH2 0x212A PUSH2 0x1F6F JUMP JUMPDEST JUMPDEST PUSH1 0x0 PUSH2 0x2139 DUP6 DUP3 DUP7 ADD PUSH2 0x1FB7 JUMP JUMPDEST SWAP3 POP POP PUSH1 0x20 PUSH2 0x214A DUP6 DUP3 DUP7 ADD PUSH2 0x1FB7 JUMP JUMPDEST SWAP2 POP POP SWAP3 POP SWAP3 SWAP1 POP JUMP JUMPDEST PUSH1 0x0 PUSH1 0x20 DUP3 DUP5 SUB SLT ISZERO PUSH2 0x216A JUMPI PUSH2 0x2169 PUSH2 0x1F6F JUMP JUMPDEST JUMPDEST PUSH1 0x0 PUSH2 0x2178 DUP5 DUP3 DUP6 ADD PUSH2 0x1F8B JUMP JUMPDEST SWAP2 POP POP SWAP3 SWAP2 POP POP JUMP JUMPDEST PUSH1 0x0 DUP1 PUSH1 0x40 DUP4 DUP6 SUB SLT ISZERO PUSH2 0x2198 JUMPI PUSH2 0x2197 PUSH2 0x1F6F JUMP JUMPDEST JUMPDEST PUSH1 0x0 PUSH2 0x21A6 DUP6 DUP3 DUP7 ADD PUSH2 0x1F8B JUMP JUMPDEST SWAP3 POP POP PUSH1 0x20 PUSH2 0x21B7 DUP6 DUP3 DUP7 ADD PUSH2 0x1F8B JUMP JUMPDEST SWAP2 POP POP SWAP3 POP SWAP3 SWAP1 POP JUMP JUMPDEST PUSH1 0x0 DUP2 MLOAD SWAP1 POP PUSH2 0x21D0 DUP2 PUSH2 0x1FA0 JUMP JUMPDEST SWAP3 SWAP2 POP POP JUMP JUMPDEST PUSH1 0x0 PUSH1 0x20 DUP3 DUP5 SUB SLT ISZERO PUSH2 0x21EC JUMPI PUSH2 0x21EB PUSH2 0x1F6F JUMP JUMPDEST JUMPDEST PUSH1 0x0 PUSH2 0x21FA DUP5 DUP3 DUP6 ADD PUSH2 0x21C1 JUMP JUMPDEST SWAP2 POP POP SWAP3 SWAP2 POP POP JUMP JUMPDEST PUSH32 0x4E487B7100000000000000000000000000000000000000000000000000000000 PUSH1 0x0 MSTORE PUSH1 0x22 PUSH1 0x4 MSTORE PUSH1 0x24 PUSH1 0x0 REVERT JUMPDEST PUSH1 0x0 PUSH1 0x2 DUP3 DIV SWAP1 POP PUSH1 0x1 DUP3 AND DUP1 PUSH2 0x224A JUMPI PUSH1 0x7F DUP3 AND SWAP2 POP JUMPDEST PUSH1 0x20 DUP3 LT DUP2 SUB PUSH2 0x225D JUMPI PUSH2 0x225C PUSH2 0x2203 JUMP JUMPDEST JUMPDEST POP SWAP2 SWAP1 POP JUMP JUMPDEST PUSH32 0x576974686472617720616D6F756E74732063616E277420626520302E00000000 PUSH1 0x0 DUP3 ADD MSTORE POP JUMP JUMPDEST PUSH1 0x0 PUSH2 0x2299 PUSH1 0x1C DUP4 PUSH2 0x1EC8 JUMP JUMPDEST SWAP2 POP PUSH2 0x22A4 DUP3 PUSH2 0x2263 JUMP JUMPDEST PUSH1 0x20 DUP3 ADD SWAP1 POP SWAP2 SWAP1 POP JUMP JUMPDEST PUSH1 0x0 PUSH1 0x20 DUP3 ADD SWAP1 POP DUP2 DUP2 SUB PUSH1 0x0 DUP4 ADD MSTORE PUSH2 0x22C8 DUP2 PUSH2 0x228C JUMP JUMPDEST SWAP1 POP SWAP2 SWAP1 POP JUMP JUMPDEST PUSH32 0x546F6B656E20776974686472617720616D6F756E747320617265206E6F74206F PUSH1 0x0 DUP3 ADD MSTORE PUSH32 0x6620657175616C2076616C75652E000000000000000000000000000000000000 PUSH1 0x20 DUP3 ADD MSTORE POP JUMP JUMPDEST PUSH1 0x0 PUSH2 0x232B PUSH1 0x2E DUP4 PUSH2 0x1EC8 JUMP JUMPDEST SWAP2 POP PUSH2 0x2336 DUP3 PUSH2 0x22CF JUMP JUMPDEST PUSH1 0x40 DUP3 ADD SWAP1 POP SWAP2 SWAP1 POP JUMP JUMPDEST PUSH1 0x0 PUSH1 0x20 DUP3 ADD SWAP1 POP DUP2 DUP2 SUB PUSH1 0x0 DUP4 ADD MSTORE PUSH2 0x235A DUP2 PUSH2 0x231E JUMP JUMPDEST SWAP1 POP SWAP2 SWAP1 POP JUMP JUMPDEST PUSH32 0x5573657220646F65736E2774206F776E20656E6F756768206C69717569646974 PUSH1 0x0 DUP3 ADD MSTORE PUSH32 0x7920706F6F6C2066756E64732E00000000000000000000000000000000000000 PUSH1 0x20 DUP3 ADD MSTORE POP JUMP JUMPDEST PUSH1 0x0 PUSH2 0x23BD PUSH1 0x2D DUP4 PUSH2 0x1EC8 JUMP JUMPDEST SWAP2 POP PUSH2 0x23C8 DUP3 PUSH2 0x2361 JUMP JUMPDEST PUSH1 0x40 DUP3 ADD SWAP1 POP SWAP2 SWAP1 POP JUMP JUMPDEST PUSH1 0x0 PUSH1 0x20 DUP3 ADD SWAP1 POP DUP2 DUP2 SUB PUSH1 0x0 DUP4 ADD MSTORE PUSH2 0x23EC DUP2 PUSH2 0x23B0 JUMP JUMPDEST SWAP1 POP SWAP2 SWAP1 POP JUMP JUMPDEST PUSH1 0x0 PUSH1 0x40 DUP3 ADD SWAP1 POP PUSH2 0x2408 PUSH1 0x0 DUP4 ADD DUP6 PUSH2 0x1E93 JUMP JUMPDEST PUSH2 0x2415 PUSH1 0x20 DUP4 ADD DUP5 PUSH2 0x1E29 JUMP JUMPDEST SWAP4 SWAP3 POP POP POP JUMP JUMPDEST PUSH2 0x2425 DUP2 PUSH2 0x200C JUMP JUMPDEST DUP2 EQ PUSH2 0x2430 JUMPI PUSH1 0x0 DUP1 REVERT JUMPDEST POP JUMP JUMPDEST PUSH1 0x0 DUP2 MLOAD SWAP1 POP PUSH2 0x2442 DUP2 PUSH2 0x241C JUMP JUMPDEST SWAP3 SWAP2 POP POP JUMP JUMPDEST PUSH1 0x0 PUSH1 0x20 DUP3 DUP5 SUB SLT ISZERO PUSH2 0x245E JUMPI PUSH2 0x245D PUSH2 0x1F6F JUMP JUMPDEST JUMPDEST PUSH1 0x0 PUSH2 0x246C DUP5 DUP3 DUP6 ADD PUSH2 0x2433 JUMP JUMPDEST SWAP2 POP POP SWAP3 SWAP2 POP POP JUMP JUMPDEST PUSH32 0x4465706F73697420616D6F756E74732063616E277420626520302E0000000000 PUSH1 0x0 DUP3 ADD MSTORE POP JUMP JUMPDEST PUSH1 0x0 PUSH2 0x24AB PUSH1 0x1B DUP4 PUSH2 0x1EC8 JUMP JUMPDEST SWAP2 POP PUSH2 0x24B6 DUP3 PUSH2 0x2475 JUMP JUMPDEST PUSH1 0x20 DUP3 ADD SWAP1 POP SWAP2 SWAP1 POP JUMP JUMPDEST PUSH1 0x0 PUSH1 0x20 DUP3 ADD SWAP1 POP DUP2 DUP2 SUB PUSH1 0x0 DUP4 ADD MSTORE PUSH2 0x24DA DUP2 PUSH2 0x249E JUMP JUMPDEST SWAP1 POP SWAP2 SWAP1 POP JUMP JUMPDEST PUSH1 0x0 PUSH1 0x60 DUP3 ADD SWAP1 POP PUSH2 0x24F6 PUSH1 0x0 DUP4 ADD DUP7 PUSH2 0x1E93 JUMP JUMPDEST PUSH2 0x2503 PUSH1 0x20 DUP4 ADD DUP6 PUSH2 0x1E93 JUMP JUMPDEST PUSH2 0x2510 PUSH1 0x40 DUP4 ADD DUP5 PUSH2 0x1E29 JUMP JUMPDEST SWAP5 SWAP4 POP POP POP POP JUMP JUMPDEST PUSH32 0x4E487B7100000000000000000000000000000000000000000000000000000000 PUSH1 0x0 MSTORE PUSH1 0x11 PUSH1 0x4 MSTORE PUSH1 0x24 PUSH1 0x0 REVERT JUMPDEST PUSH1 0x0 DUP2 PUSH1 0x1 SHR SWAP1 POP SWAP2 SWAP1 POP JUMP JUMPDEST PUSH1 0x0 DUP1 DUP3 SWAP2 POP DUP4 SWAP1 POP JUMPDEST PUSH1 0x1 DUP6 GT ISZERO PUSH2 0x259E JUMPI DUP1 DUP7 DIV DUP2 GT ISZERO PUSH2 0x257A JUMPI PUSH2 0x2579 PUSH2 0x2518 JUMP JUMPDEST JUMPDEST PUSH1 0x1 DUP6 AND ISZERO PUSH2 0x2589 JUMPI DUP1 DUP3 MUL SWAP2 POP JUMPDEST DUP1 DUP2 MUL SWAP1 POP PUSH2 0x2597 DUP6 PUSH2 0x2547 JUMP JUMPDEST SWAP5 POP PUSH2 0x255E JUMP JUMPDEST SWAP5 POP SWAP5 SWAP3 POP POP POP JUMP JUMPDEST PUSH1 0x0 DUP3 PUSH2 0x25B7 JUMPI PUSH1 0x1 SWAP1 POP PUSH2 0x2673 JUMP JUMPDEST DUP2 PUSH2 0x25C5 JUMPI PUSH1 0x0 SWAP1 POP PUSH2 0x2673 JUMP JUMPDEST DUP2 PUSH1 0x1 DUP2 EQ PUSH2 0x25DB JUMPI PUSH1 0x2 DUP2 EQ PUSH2 0x25E5 JUMPI PUSH2 0x2614 JUMP JUMPDEST PUSH1 0x1 SWAP2 POP POP PUSH2 0x2673 JUMP JUMPDEST PUSH1 0xFF DUP5 GT ISZERO PUSH2 0x25F7 JUMPI PUSH2 0x25F6 PUSH2 0x2518 JUMP JUMPDEST JUMPDEST DUP4 PUSH1 0x2 EXP SWAP2 POP DUP5 DUP3 GT ISZERO PUSH2 0x260E JUMPI PUSH2 0x260D PUSH2 0x2518 JUMP JUMPDEST JUMPDEST POP PUSH2 0x2673 JUMP JUMPDEST POP PUSH1 0x20 DUP4 LT PUSH2 0x133 DUP4 LT AND PUSH1 0x4E DUP5 LT PUSH1 0xB DUP5 LT AND OR ISZERO PUSH2 0x2649 JUMPI DUP3 DUP3 EXP SWAP1 POP DUP4 DUP2 GT ISZERO PUSH2 0x2644 JUMPI PUSH2 0x2643 PUSH2 0x2518 JUMP JUMPDEST JUMPDEST PUSH2 0x2673 JUMP JUMPDEST PUSH2 0x2656 DUP5 DUP5 DUP5 PUSH1 0x1 PUSH2 0x2554 JUMP JUMPDEST SWAP3 POP SWAP1 POP DUP2 DUP5 DIV DUP2 GT ISZERO PUSH2 0x266D JUMPI PUSH2 0x266C PUSH2 0x2518 JUMP JUMPDEST JUMPDEST DUP2 DUP2 MUL SWAP1 POP JUMPDEST SWAP4 SWAP3 POP POP POP JUMP JUMPDEST PUSH1 0x0 PUSH2 0x2685 DUP3 PUSH2 0x1E1F JUMP JUMPDEST SWAP2 POP PUSH2 0x2690 DUP4 PUSH2 0x20DD JUMP JUMPDEST SWAP3 POP PUSH2 0x26BD PUSH32 0xFFFFFFFFFFFFFFFFFFFFFFFFFFFFFFFFFFFFFFFFFFFFFFFFFFFFFFFFFFFFFFFF DUP5 DUP5 PUSH2 0x25A7 JUMP JUMPDEST SWAP1 POP SWAP3 SWAP2 POP POP JUMP JUMPDEST PUSH1 0x0 PUSH2 0x26D0 DUP3 PUSH2 0x1E1F JUMP JUMPDEST SWAP2 POP PUSH2 0x26DB DUP4 PUSH2 0x1E1F JUMP JUMPDEST SWAP3 POP DUP3 DUP3 MUL PUSH2 0x26E9 DUP2 PUSH2 0x1E1F JUMP JUMPDEST SWAP2 POP DUP3 DUP3 DIV DUP5 EQ DUP4 ISZERO OR PUSH2 0x2700 JUMPI PUSH2 0x26FF PUSH2 0x2518 JUMP JUMPDEST JUMPDEST POP SWAP3 SWAP2 POP POP JUMP JUMPDEST PUSH32 0x546F6B656E20616D6F756E74732070726F766964656420617265206E6F74206F PUSH1 0x0 DUP3 ADD MSTORE PUSH32 0x6620657175616C2076616C75652E000000000000000000000000000000000000 PUSH1 0x20 DUP3 ADD MSTORE POP JUMP JUMPDEST PUSH1 0x0 PUSH2 0x2763 PUSH1 0x2E DUP4 PUSH2 0x1EC8 JUMP JUMPDEST SWAP2 POP PUSH2 0x276E DUP3 PUSH2 0x2707 JUMP JUMPDEST PUSH1 0x40 DUP3 ADD SWAP1 POP SWAP2 SWAP1 POP JUMP JUMPDEST PUSH1 0x0 PUSH1 0x20 DUP3 ADD SWAP1 POP DUP2 DUP2 SUB PUSH1 0x0 DUP4 ADD MSTORE PUSH2 0x2792 DUP2 PUSH2 0x2756 JUMP JUMPDEST SWAP1 POP SWAP2 SWAP1 POP JUMP JUMPDEST PUSH32 0x53776170206661696C65642E0000000000000000000000000000000000000000 PUSH1 0x0 DUP3 ADD MSTORE POP JUMP JUMPDEST PUSH1 0x0 PUSH2 0x27CF PUSH1 0xC DUP4 PUSH2 0x1EC8 JUMP JUMPDEST SWAP2 POP PUSH2 0x27DA DUP3 PUSH2 0x2799 JUMP JUMPDEST PUSH1 0x20 DUP3 ADD SWAP1 POP SWAP2 SWAP1 POP JUMP JUMPDEST PUSH1 0x0 PUSH1 0x20 DUP3 ADD SWAP1 POP DUP2 DUP2 SUB PUSH1 0x0 DUP4 ADD MSTORE PUSH2 0x27FE DUP2 PUSH2 0x27C2 JUMP JUMPDEST SWAP1 POP SWAP2 SWAP1 POP JUMP JUMPDEST PUSH32 0x4E6F7420656E6F7567682072657365727665732E000000000000000000000000 PUSH1 0x0 DUP3 ADD MSTORE POP JUMP JUMPDEST PUSH1 0x0 PUSH2 0x283B PUSH1 0x14 DUP4 PUSH2 0x1EC8 JUMP JUMPDEST SWAP2 POP PUSH2 0x2846 DUP3 PUSH2 0x2805 JUMP JUMPDEST PUSH1 0x20 DUP3 ADD SWAP1 POP SWAP2 SWAP1 POP JUMP JUMPDEST PUSH1 0x0 PUSH1 0x20 DUP3 ADD SWAP1 POP DUP2 DUP2 SUB PUSH1 0x0 DUP4 ADD MSTORE PUSH2 0x286A DUP2 PUSH2 0x282E JUMP JUMPDEST SWAP1 POP SWAP2 SWAP1 POP JUMP JUMPDEST PUSH1 0x0 PUSH1 0x80 DUP3 ADD SWAP1 POP PUSH2 0x2886 PUSH1 0x0 DUP4 ADD DUP8 PUSH2 0x1E93 JUMP JUMPDEST PUSH2 0x2893 PUSH1 0x20 DUP4 ADD DUP7 PUSH2 0x1E93 JUMP JUMPDEST PUSH2 0x28A0 PUSH1 0x40 DUP4 ADD DUP6 PUSH2 0x1E29 JUMP JUMPDEST PUSH2 0x28AD PUSH1 0x60 DUP4 ADD DUP5 PUSH2 0x1E29 JUMP JUMPDEST SWAP6 SWAP5 POP POP POP POP POP JUMP JUMPDEST PUSH32 0x4E487B7100000000000000000000000000000000000000000000000000000000 PUSH1 0x0 MSTORE PUSH1 0x12 PUSH1 0x4 MSTORE PUSH1 0x24 PUSH1 0x0 REVERT JUMPDEST PUSH1 0x0 PUSH2 0x28F0 DUP3 PUSH2 0x1E1F JUMP JUMPDEST SWAP2 POP PUSH2 0x28FB DUP4 PUSH2 0x1E1F JUMP JUMPDEST SWAP3 POP DUP3 PUSH2 0x290B JUMPI PUSH2 0x290A PUSH2 0x28B6 JUMP JUMPDEST JUMPDEST DUP3 DUP3 DIV SWAP1 POP SWAP3 SWAP2 POP POP JUMP JUMPDEST PUSH32 0x536166654D6174683A206D756C7469706C69636174696F6E206F766572666C6F PUSH1 0x0 DUP3 ADD MSTORE PUSH32 0x7700000000000000000000000000000000000000000000000000000000000000 PUSH1 0x20 DUP3 ADD MSTORE POP JUMP JUMPDEST PUSH1 0x0 PUSH2 0x2972 PUSH1 0x21 DUP4 PUSH2 0x1EC8 JUMP JUMPDEST SWAP2 POP PUSH2 0x297D DUP3 PUSH2 0x2916 JUMP JUMPDEST PUSH1 0x40 DUP3 ADD SWAP1 POP SWAP2 SWAP1 POP JUMP JUMPDEST PUSH1 0x0 PUSH1 0x20 DUP3 ADD SWAP1 POP DUP2 DUP2 SUB PUSH1 0x0 DUP4 ADD MSTORE PUSH2 0x29A1 DUP2 PUSH2 0x2965 JUMP JUMPDEST SWAP1 POP SWAP2 SWAP1 POP JUMP JUMPDEST PUSH32 0x536166654D6174683A206469766973696F6E206279207A65726F000000000000 PUSH1 0x0 DUP3 ADD MSTORE POP JUMP JUMPDEST PUSH1 0x0 PUSH2 0x29DE PUSH1 0x1A DUP4 PUSH2 0x1EC8 JUMP JUMPDEST SWAP2 POP PUSH2 0x29E9 DUP3 PUSH2 0x29A8 JUMP JUMPDEST PUSH1 0x20 DUP3 ADD SWAP1 POP SWAP2 SWAP1 POP JUMP JUMPDEST PUSH1 0x0 PUSH1 0x20 DUP3 ADD SWAP1 POP DUP2 DUP2 SUB PUSH1 0x0 DUP4 ADD MSTORE PUSH2 0x2A0D DUP2 PUSH2 0x29D1 JUMP JUMPDEST SWAP1 POP SWAP2 SWAP1 POP JUMP JUMPDEST PUSH1 0x0 PUSH1 0x60 DUP3 ADD SWAP1 POP PUSH2 0x2A29 PUSH1 0x0 DUP4 ADD DUP7 PUSH2 0x1E93 JUMP JUMPDEST PUSH2 0x2A36 PUSH1 0x20 DUP4 ADD DUP6 PUSH2 0x1E29 JUMP JUMPDEST PUSH2 0x2A43 PUSH1 0x40 DUP4 ADD DUP5 PUSH2 0x1E29 JUMP JUMPDEST SWAP5 SWAP4 POP POP POP POP JUMP JUMPDEST PUSH1 0x0 PUSH2 0x2A56 DUP3 PUSH2 0x1E1F JUMP JUMPDEST SWAP2 POP PUSH2 0x2A61 DUP4 PUSH2 0x1E1F JUMP JUMPDEST SWAP3 POP DUP3 DUP3 ADD SWAP1 POP DUP1 DUP3 GT ISZERO PUSH2 0x2A79 JUMPI PUSH2 0x2A78 PUSH2 0x2518 JUMP JUMPDEST JUMPDEST SWAP3 SWAP2 POP POP JUMP INVALID LOG2 PUSH5 0x6970667358 0x22 SLT KECCAK256 0xE3 0xF8 0xB8 0x4B SWAP10 PUSH12 0x21776644597D917F210BE1F1 BLOCKHASH CALLVALUE 0xF 0xE ISZERO 0xCE PUSH27 0x3D232B30C9749B64736F6C63430008140033000000000000000000 "},"methodIdentifiers":{"_tokenA()":"f3c4469f","_tokenB()":"04ba7f29","addLiquidity(uint256,uint256)":"9cd441da","allowance(address,address)":"dd62ed3e","approve(address,uint256)":"095ea7b3","balanceOf(address)":"70a08231","calculateTokenAEquivalent(uint256)":"09c0abf5","calculateTokenBEquivalent(uint256)":"6391f7e1","decimals()":"313ce567","getBalances()":"00113e08","getK()":"ee39e7a0","getReserves()":"0902f1ac","getTokenA()":"ae0ba2fb","getTokenB()":"0f0148ea","name()":"06fdde03","swap(uint256,uint256)":"d96073cf","symbol()":"95d89b41","totalSupply()":"18160ddd","transfer(address,uint256)":"a9059cbb","transferFrom(address,address,uint256)":"23b872dd","withdraw(uint256,uint256)":"441a3e70"}}}}}