{
  "_format": "hh-sol-artifact-1",
  "contractName": "TradingPair",
  "sourceName": "contracts/TradingPair.sol",
  "abi": [
    {
      "inputs": [
        {
          "internalType": "address",
          "name": "tokenA",
          "type": "address"
        },
        {
          "internalType": "address",
          "name": "tokenB",
          "type": "address"
        }
      ],
      "stateMutability": "nonpayable",
      "type": "constructor"
    },
    {
      "inputs": [
        {
          "internalType": "address",
          "name": "spender",
          "type": "address"
        },
        {
          "internalType": "uint256",
          "name": "allowance",
          "type": "uint256"
        },
        {
          "internalType": "uint256",
          "name": "needed",
          "type": "uint256"
        }
      ],
      "name": "ERC20InsufficientAllowance",
      "type": "error"
    },
    {
      "inputs": [
        {
          "internalType": "address",
          "name": "sender",
          "type": "address"
        },
        {
          "internalType": "uint256",
          "name": "balance",
          "type": "uint256"
        },
        {
          "internalType": "uint256",
          "name": "needed",
          "type": "uint256"
        }
      ],
      "name": "ERC20InsufficientBalance",
      "type": "error"
    },
    {
      "inputs": [
        {
          "internalType": "address",
          "name": "approver",
          "type": "address"
        }
      ],
      "name": "ERC20InvalidApprover",
      "type": "error"
    },
    {
      "inputs": [
        {
          "internalType": "address",
          "name": "receiver",
          "type": "address"
        }
      ],
      "name": "ERC20InvalidReceiver",
      "type": "error"
    },
    {
      "inputs": [
        {
          "internalType": "address",
          "name": "sender",
          "type": "address"
        }
      ],
      "name": "ERC20InvalidSender",
      "type": "error"
    },
    {
      "inputs": [
        {
          "internalType": "address",
          "name": "spender",
          "type": "address"
        }
      ],
      "name": "ERC20InvalidSpender",
      "type": "error"
    },
    {
      "anonymous": false,
      "inputs": [
        {
          "indexed": true,
          "internalType": "address",
          "name": "owner",
          "type": "address"
        },
        {
          "indexed": true,
          "internalType": "address",
          "name": "spender",
          "type": "address"
        },
        {
          "indexed": false,
          "internalType": "uint256",
          "name": "value",
          "type": "uint256"
        }
      ],
      "name": "Approval",
      "type": "event"
    },
    {
      "anonymous": false,
      "inputs": [
        {
          "indexed": false,
          "internalType": "uint256",
          "name": "amountA",
          "type": "uint256"
        },
        {
          "indexed": false,
          "internalType": "uint256",
          "name": "amountB",
          "type": "uint256"
        }
      ],
      "name": "LiquidityAddded",
      "type": "event"
    },
    {
      "anonymous": false,
      "inputs": [
        {
          "indexed": false,
          "internalType": "uint256",
          "name": "amountA",
          "type": "uint256"
        },
        {
          "indexed": false,
          "internalType": "uint256",
          "name": "amountB",
          "type": "uint256"
        }
      ],
      "name": "LiquidityWithdrawn",
      "type": "event"
    },
    {
      "anonymous": false,
      "inputs": [
        {
          "indexed": false,
          "internalType": "address",
          "name": "tokenSwapped",
          "type": "address"
        },
        {
          "indexed": false,
          "internalType": "address",
          "name": "tokenObtained",
          "type": "address"
        },
        {
          "indexed": false,
          "internalType": "uint256",
          "name": "amountSwapped",
          "type": "uint256"
        },
        {
          "indexed": false,
          "internalType": "uint256",
          "name": "amountObtained",
          "type": "uint256"
        }
      ],
      "name": "Swap",
      "type": "event"
    },
    {
      "anonymous": false,
      "inputs": [
        {
          "indexed": true,
          "internalType": "address",
          "name": "from",
          "type": "address"
        },
        {
          "indexed": true,
          "internalType": "address",
          "name": "to",
          "type": "address"
        },
        {
          "indexed": false,
          "internalType": "uint256",
          "name": "value",
          "type": "uint256"
        }
      ],
      "name": "Transfer",
      "type": "event"
    },
    {
      "inputs": [],
      "name": "_tokenA",
      "outputs": [
        {
          "internalType": "address",
          "name": "",
          "type": "address"
        }
      ],
      "stateMutability": "view",
      "type": "function"
    },
    {
      "inputs": [],
      "name": "_tokenB",
      "outputs": [
        {
          "internalType": "address",
          "name": "",
          "type": "address"
        }
      ],
      "stateMutability": "view",
      "type": "function"
    },
    {
      "inputs": [
        {
          "internalType": "uint256",
          "name": "amountA",
          "type": "uint256"
        },
        {
          "internalType": "uint256",
          "name": "amountB",
          "type": "uint256"
        }
      ],
      "name": "addLiquidity",
      "outputs": [],
      "stateMutability": "nonpayable",
      "type": "function"
    },
    {
      "inputs": [
        {
          "internalType": "address",
          "name": "owner",
          "type": "address"
        },
        {
          "internalType": "address",
          "name": "spender",
          "type": "address"
        }
      ],
      "name": "allowance",
      "outputs": [
        {
          "internalType": "uint256",
          "name": "",
          "type": "uint256"
        }
      ],
      "stateMutability": "view",
      "type": "function"
    },
    {
      "inputs": [
        {
          "internalType": "address",
          "name": "spender",
          "type": "address"
        },
        {
          "internalType": "uint256",
          "name": "value",
          "type": "uint256"
        }
      ],
      "name": "approve",
      "outputs": [
        {
          "internalType": "bool",
          "name": "",
          "type": "bool"
        }
      ],
      "stateMutability": "nonpayable",
      "type": "function"
    },
    {
      "inputs": [
        {
          "internalType": "address",
          "name": "account",
          "type": "address"
        }
      ],
      "name": "balanceOf",
      "outputs": [
        {
          "internalType": "uint256",
          "name": "",
          "type": "uint256"
        }
      ],
      "stateMutability": "view",
      "type": "function"
    },
    {
      "inputs": [
        {
          "internalType": "uint256",
          "name": "amountB",
          "type": "uint256"
        }
      ],
      "name": "calculateTokenAEquivalent",
      "outputs": [
        {
          "internalType": "uint256",
          "name": "",
          "type": "uint256"
        }
      ],
      "stateMutability": "view",
      "type": "function"
    },
    {
      "inputs": [
        {
          "internalType": "uint256",
          "name": "amountA",
          "type": "uint256"
        }
      ],
      "name": "calculateTokenBEquivalent",
      "outputs": [
        {
          "internalType": "uint256",
          "name": "",
          "type": "uint256"
        }
      ],
      "stateMutability": "view",
      "type": "function"
    },
    {
      "inputs": [],
      "name": "decimals",
      "outputs": [
        {
          "internalType": "uint8",
          "name": "",
          "type": "uint8"
        }
      ],
      "stateMutability": "view",
      "type": "function"
    },
    {
      "inputs": [],
      "name": "getBalances",
      "outputs": [
        {
          "internalType": "uint256",
          "name": "",
          "type": "uint256"
        },
        {
          "internalType": "uint256",
          "name": "",
          "type": "uint256"
        }
      ],
      "stateMutability": "view",
      "type": "function"
    },
    {
      "inputs": [],
      "name": "getK",
      "outputs": [
        {
          "internalType": "uint256",
          "name": "",
          "type": "uint256"
        }
      ],
      "stateMutability": "view",
      "type": "function"
    },
    {
      "inputs": [],
      "name": "getReserves",
      "outputs": [
        {
          "internalType": "uint256",
          "name": "",
          "type": "uint256"
        },
        {
          "internalType": "uint256",
          "name": "",
          "type": "uint256"
        }
      ],
      "stateMutability": "view",
      "type": "function"
    },
    {
      "inputs": [],
      "name": "getTokenA",
      "outputs": [
        {
          "internalType": "address",
          "name": "",
          "type": "address"
        }
      ],
      "stateMutability": "view",
      "type": "function"
    },
    {
      "inputs": [],
      "name": "getTokenB",
      "outputs": [
        {
          "internalType": "address",
          "name": "",
          "type": "address"
        }
      ],
      "stateMutability": "view",
      "type": "function"
    },
    {
      "inputs": [],
      "name": "name",
      "outputs": [
        {
          "internalType": "string",
          "name": "",
          "type": "string"
        }
      ],
      "stateMutability": "view",
      "type": "function"
    },
    {
      "inputs": [
        {
          "internalType": "uint256",
          "name": "tokenAAmount",
          "type": "uint256"
        },
        {
          "internalType": "uint256",
          "name": "tokenBAmount",
          "type": "uint256"
        }
      ],
      "name": "swap",
      "outputs": [],
      "stateMutability": "nonpayable",
      "type": "function"
    },
    {
      "inputs": [],
      "name": "symbol",
      "outputs": [
        {
          "internalType": "string",
          "name": "",
          "type": "string"
        }
      ],
      "stateMutability": "view",
      "type": "function"
    },
    {
      "inputs": [],
      "name": "totalSupply",
      "outputs": [
        {
          "internalType": "uint256",
          "name": "",
          "type": "uint256"
        }
      ],
      "stateMutability": "view",
      "type": "function"
    },
    {
      "inputs": [
        {
          "internalType": "address",
          "name": "to",
          "type": "address"
        },
        {
          "internalType": "uint256",
          "name": "value",
          "type": "uint256"
        }
      ],
      "name": "transfer",
      "outputs": [
        {
          "internalType": "bool",
          "name": "",
          "type": "bool"
        }
      ],
      "stateMutability": "nonpayable",
      "type": "function"
    },
    {
      "inputs": [
        {
          "internalType": "address",
          "name": "from",
          "type": "address"
        },
        {
          "internalType": "address",
          "name": "to",
          "type": "address"
        },
        {
          "internalType": "uint256",
          "name": "value",
          "type": "uint256"
        }
      ],
      "name": "transferFrom",
      "outputs": [
        {
          "internalType": "bool",
          "name": "",
          "type": "bool"
        }
      ],
      "stateMutability": "nonpayable",
      "type": "function"
    },
    {
      "inputs": [
        {
          "internalType": "uint256",
          "name": "amountA",
          "type": "uint256"
        },
        {
          "internalType": "uint256",
          "name": "amountB",
          "type": "uint256"
        }
      ],
      "name": "withdraw",
      "outputs": [],
      "stateMutability": "nonpayable",
      "type": "function"
    }
  ],
  "bytecode": "0x60c0604052600060055560006006553480156200001b57600080fd5b50604051620030bb380380620030bb8339818101604052810190620000419190620001ad565b6040518060400160405280601681526020017f4c6961646578204c697175696469747920546f6b656e000000000000000000008152506040518060400160405280600381526020017f4c4c5400000000000000000000000000000000000000000000000000000000008152508160039081620000be91906200046e565b508060049081620000d091906200046e565b5050508173ffffffffffffffffffffffffffffffffffffffff1660808173ffffffffffffffffffffffffffffffffffffffff16815250508073ffffffffffffffffffffffffffffffffffffffff1660a08173ffffffffffffffffffffffffffffffffffffffff1681525050505062000555565b600080fd5b600073ffffffffffffffffffffffffffffffffffffffff82169050919050565b6000620001758262000148565b9050919050565b620001878162000168565b81146200019357600080fd5b50565b600081519050620001a7816200017c565b92915050565b60008060408385031215620001c757620001c662000143565b5b6000620001d78582860162000196565b9250506020620001ea8582860162000196565b9150509250929050565b600081519050919050565b7f4e487b7100000000000000000000000000000000000000000000000000000000600052604160045260246000fd5b7f4e487b7100000000000000000000000000000000000000000000000000000000600052602260045260246000fd5b600060028204905060018216806200027657607f821691505b6020821081036200028c576200028b6200022e565b5b50919050565b60008190508160005260206000209050919050565b60006020601f8301049050919050565b600082821b905092915050565b600060088302620002f67fffffffffffffffffffffffffffffffffffffffffffffffffffffffffffffffff82620002b7565b620003028683620002b7565b95508019841693508086168417925050509392505050565b6000819050919050565b6000819050919050565b60006200034f6200034962000343846200031a565b62000324565b6200031a565b9050919050565b6000819050919050565b6200036b836200032e565b620003836200037a8262000356565b848454620002c4565b825550505050565b600090565b6200039a6200038b565b620003a781848462000360565b505050565b5b81811015620003cf57620003c360008262000390565b600181019050620003ad565b5050565b601f8211156200041e57620003e88162000292565b620003f384620002a7565b8101602085101562000403578190505b6200041b6200041285620002a7565b830182620003ac565b50505b505050565b600082821c905092915050565b6000620004436000198460080262000423565b1980831691505092915050565b60006200045e838362000430565b9150826002028217905092915050565b6200047982620001f4565b67ffffffffffffffff811115620004955762000494620001ff565b5b620004a182546200025d565b620004ae828285620003d3565b600060209050601f831160018114620004e65760008415620004d1578287015190505b620004dd858262000450565b8655506200054d565b601f198416620004f68662000292565b60005b828110156200052057848901518255600182019150602085019450602081019050620004f9565b868310156200054057848901516200053c601f89168262000430565b8355505b6001600288020188555050505b505050505050565b60805160a051612ab462000607600039600081816104ca0152818161056c0152818161068a015281816108be01528181610bb901528181610d8b015281816110b60152818161119f015281816112610152818161140b015261184b0152600081816104300152818161081f01528181610b1801528181610cea01528181610ed501528181610fd40152818161117e015281816113430152818161142c015281816114ff01526117ad0152612ab46000f3fe608060405234801561001057600080fd5b50600436106101365760003560e01c8063441a3e70116100b8578063a9059cbb1161007c578063a9059cbb14610355578063ae0ba2fb14610385578063d96073cf146103a3578063dd62ed3e146103bf578063ee39e7a0146103ef578063f3c4469f1461040d57610136565b8063441a3e701461029f5780636391f7e1146102bb57806370a08231146102eb57806395d89b411461031b5780639cd441da1461033957610136565b806309c0abf5116100ff57806309c0abf5146101e55780630f0148ea1461021557806318160ddd1461023357806323b872dd14610251578063313ce5671461028157610136565b8062113e081461013b57806304ba7f291461015a57806306fdde03146101785780630902f1ac14610196578063095ea7b3146101b5575b600080fd5b61014361042b565b604051610151929190611e37565b60405180910390f35b61016261056a565b60405161016f9190611ea1565b60405180910390f35b61018061058e565b60405161018d9190611f4c565b60405180910390f35b61019e610620565b6040516101ac929190611e37565b60405180910390f35b6101cf60048036038101906101ca9190611fcb565b610631565b6040516101dc9190612026565b60405180910390f35b6101ff60048036038101906101fa9190612041565b610654565b60405161020c919061206e565b60405180910390f35b61021d610686565b60405161022a9190611ea1565b60405180910390f35b61023b6106ae565b604051610248919061206e565b60405180910390f35b61026b60048036038101906102669190612089565b6106b8565b6040516102789190612026565b60405180910390f35b6102896106e7565b60405161029691906120f8565b60405180910390f35b6102b960048036038101906102b49190612113565b6106f0565b005b6102d560048036038101906102d09190612041565b6109ac565b6040516102e2919061206e565b60405180910390f35b61030560048036038101906103009190612153565b6109de565b604051610312919061206e565b60405180910390f35b610323610a26565b6040516103309190611f4c565b60405180910390f35b610353600480360381019061034e9190612113565b610ab8565b005b61036f600480360381019061036a9190611fcb565b610eae565b60405161037c9190612026565b60405180910390f35b61038d610ed1565b60405161039a9190611ea1565b60405180910390f35b6103bd60048036038101906103b89190612113565b610ef9565b005b6103d960048036038101906103d49190612180565b61146c565b6040516103e6919061206e565b60405180910390f35b6103f76114f3565b604051610404919061206e565b60405180910390f35b6104156114fd565b6040516104229190611ea1565b60405180910390f35b6000807f000000000000000000000000000000000000000000000000000000000000000073ffffffffffffffffffffffffffffffffffffffff166370a08231306040518263ffffffff1660e01b81526004016104879190611ea1565b602060405180830381865afa1580156104a4573d6000803e3d6000fd5b505050506040513d601f19601f820116820180604052508101906104c891906121d5565b7f000000000000000000000000000000000000000000000000000000000000000073ffffffffffffffffffffffffffffffffffffffff166370a08231306040518263ffffffff1660e01b81526004016105219190611ea1565b602060405180830381865afa15801561053e573d6000803e3d6000fd5b505050506040513d601f19601f8201168201806040525081019061056291906121d5565b915091509091565b7f000000000000000000000000000000000000000000000000000000000000000081565b60606003805461059d90612231565b80601f01602080910402602001604051908101604052809291908181526020018280546105c990612231565b80156106165780601f106105eb57610100808354040283529160200191610616565b820191906000526020600020905b8154815290600101906020018083116105f957829003601f168201915b5050505050905090565b600080600554600654915091509091565b60008061063c611521565b9050610649818585611529565b600191505092915050565b600061067f6006546106718460055461153b90919063ffffffff16565b6115b590919063ffffffff16565b9050919050565b60007f0000000000000000000000000000000000000000000000000000000000000000905090565b6000600254905090565b6000806106c3611521565b90506106d0858285611613565b6106db8585856116a7565b60019150509392505050565b60006012905090565b6000821180156107005750600081115b61073f576040517f08c379a0000000000000000000000000000000000000000000000000000000008152600401610736906122ae565b60405180910390fd5b60008261074b83610654565b148061075e57508161075c846109ac565b145b9050806107a0576040517f08c379a000000000000000000000000000000000000000000000000000000000815260040161079790612340565b60405180910390fd5b60006107d06005546107c26107b36106ae565b8761153b90919063ffffffff16565b6115b590919063ffffffff16565b9050806107dc336109de565b101561081d576040517f08c379a0000000000000000000000000000000000000000000000000000000008152600401610814906123d2565b60405180910390fd5b7f000000000000000000000000000000000000000000000000000000000000000073ffffffffffffffffffffffffffffffffffffffff1663a9059cbb33866040518363ffffffff1660e01b81526004016108789291906123f2565b6020604051808303816000875af1158015610897573d6000803e3d6000fd5b505050506040513d601f19601f820116820180604052508101906108bb9190612447565b507f000000000000000000000000000000000000000000000000000000000000000073ffffffffffffffffffffffffffffffffffffffff1663a9059cbb33856040518363ffffffff1660e01b81526004016109179291906123f2565b6020604051808303816000875af1158015610936573d6000803e3d6000fd5b505050506040513d601f19601f8201168201806040525081019061095a9190612447565b50610965338261179b565b7ff3f4772b0ce29670f0f94b6bb2b4afed357a2ee57d34e31562426895e978f71e8484604051610996929190611e37565b60405180910390a16109a66117a9565b50505050565b60006109d76005546109c98460065461153b90919063ffffffff16565b6115b590919063ffffffff16565b9050919050565b60008060008373ffffffffffffffffffffffffffffffffffffffff1673ffffffffffffffffffffffffffffffffffffffff168152602001908152602001600020549050919050565b606060048054610a3590612231565b80601f0160208091040260200160405190810160405280929190818152602001828054610a6190612231565b8015610aae5780601f10610a8357610100808354040283529160200191610aae565b820191906000526020600020905b815481529060010190602001808311610a9157829003601f168201915b5050505050905090565b600082118015610ac85750600081115b610b07576040517f08c379a0000000000000000000000000000000000000000000000000000000008152600401610afe906124c0565b60405180910390fd5b6000610b116106ae565b03610c87577f000000000000000000000000000000000000000000000000000000000000000073ffffffffffffffffffffffffffffffffffffffff166323b872dd3330856040518463ffffffff1660e01b8152600401610b73939291906124e0565b6020604051808303816000875af1158015610b92573d6000803e3d6000fd5b505050506040513d601f19601f82011682018060405250810190610bb69190612447565b507f000000000000000000000000000000000000000000000000000000000000000073ffffffffffffffffffffffffffffffffffffffff166323b872dd3330846040518463ffffffff1660e01b8152600401610c14939291906124e0565b6020604051808303816000875af1158015610c33573d6000803e3d6000fd5b505050506040513d601f19601f82011682018060405250810190610c579190612447565b50610c8233610c646106e7565b600a610c709190612679565b6103e8610c7d91906126c4565b611910565b610ea2565b600082610c9383610654565b1480610ca6575081610ca4846109ac565b145b905080610ce8576040517f08c379a0000000000000000000000000000000000000000000000000000000008152600401610cdf90612778565b60405180910390fd5b7f000000000000000000000000000000000000000000000000000000000000000073ffffffffffffffffffffffffffffffffffffffff166323b872dd3330866040518463ffffffff1660e01b8152600401610d45939291906124e0565b6020604051808303816000875af1158015610d64573d6000803e3d6000fd5b505050506040513d601f19601f82011682018060405250810190610d889190612447565b507f000000000000000000000000000000000000000000000000000000000000000073ffffffffffffffffffffffffffffffffffffffff166323b872dd3330856040518463ffffffff1660e01b8152600401610de6939291906124e0565b6020604051808303816000875af1158015610e05573d6000803e3d6000fd5b505050506040513d601f19601f82011682018060405250810190610e299190612447565b506000610e5a600554610e4c610e3d6106ae565b8761153b90919063ffffffff16565b6115b590919063ffffffff16565b9050610e663382611910565b7fa3785c319657c7e30e3a27221716188508552382bf92aa9e6778d1190fdef7ed8484604051610e97929190611e37565b60405180910390a150505b610eaa6117a9565b5050565b600080610eb9611521565b9050610ec68185856116a7565b600191505092915050565b60007f0000000000000000000000000000000000000000000000000000000000000000905090565b60008211610f0a5760008111610f0f565b600081145b610f4e576040517f08c379a0000000000000000000000000000000000000000000000000000000008152600401610f45906127e4565b60405180910390fd5b60008211156111db576000610f8a6103e8610f7c6103e3610f6e876109ac565b61153b90919063ffffffff16565b6115b590919063ffffffff16565b90506006548110610fd0576040517f08c379a0000000000000000000000000000000000000000000000000000000008152600401610fc790612850565b60405180910390fd5b60007f000000000000000000000000000000000000000000000000000000000000000073ffffffffffffffffffffffffffffffffffffffff166323b872dd3330876040518463ffffffff1660e01b815260040161102f939291906124e0565b6020604051808303816000875af115801561104e573d6000803e3d6000fd5b505050506040513d601f19601f820116820180604052508101906110729190612447565b9050806110b4576040517f08c379a00000000000000000000000000000000000000000000000000000000081526004016110ab906127e4565b60405180910390fd5b7f000000000000000000000000000000000000000000000000000000000000000073ffffffffffffffffffffffffffffffffffffffff1663a9059cbb33846040518363ffffffff1660e01b815260040161110f9291906123f2565b6020604051808303816000875af115801561112e573d6000803e3d6000fd5b505050506040513d601f19601f820116820180604052508101906111529190612447565b5061115b6117a9565b7ffa2dda1cc1b86e41239702756b13effbc1a092b5c57e3ad320fbe4f3b13fe2357f00000000000000000000000000000000000000000000000000000000000000007f000000000000000000000000000000000000000000000000000000000000000086856040516111d09493929190612870565b60405180910390a150505b60008111156114685760006112176103e86112096103e36111fb86610654565b61153b90919063ffffffff16565b6115b590919063ffffffff16565b9050600554811061125d576040517f08c379a000000000000000000000000000000000000000000000000000000000815260040161125490612850565b60405180910390fd5b60007f000000000000000000000000000000000000000000000000000000000000000073ffffffffffffffffffffffffffffffffffffffff166323b872dd3330866040518463ffffffff1660e01b81526004016112bc939291906124e0565b6020604051808303816000875af11580156112db573d6000803e3d6000fd5b505050506040513d601f19601f820116820180604052508101906112ff9190612447565b905080611341576040517f08c379a0000000000000000000000000000000000000000000000000000000008152600401611338906127e4565b60405180910390fd5b7f000000000000000000000000000000000000000000000000000000000000000073ffffffffffffffffffffffffffffffffffffffff1663a9059cbb33846040518363ffffffff1660e01b815260040161139c9291906123f2565b6020604051808303816000875af11580156113bb573d6000803e3d6000fd5b505050506040513d601f19601f820116820180604052508101906113df9190612447565b506113e86117a9565b7ffa2dda1cc1b86e41239702756b13effbc1a092b5c57e3ad320fbe4f3b13fe2357f00000000000000000000000000000000000000000000000000000000000000007f0000000000000000000000000000000000000000000000000000000000000000858560405161145d9493929190612870565b60405180910390a150505b5050565b6000600160008473ffffffffffffffffffffffffffffffffffffffff1673ffffffffffffffffffffffffffffffffffffffff16815260200190815260200160002060008373ffffffffffffffffffffffffffffffffffffffff1673ffffffffffffffffffffffffffffffffffffffff16815260200190815260200160002054905092915050565b6000600754905090565b7f000000000000000000000000000000000000000000000000000000000000000081565b600033905090565b611536838383600161191e565b505050565b600080830361154d57600090506115af565b6000828461155b91906126c4565b905082848261156a91906128e4565b146115aa576040517f08c379a00000000000000000000000000000000000000000000000000000000081526004016115a190612987565b60405180910390fd5b809150505b92915050565b60008082116115f9576040517f08c379a00000000000000000000000000000000000000000000000000000000081526004016115f0906129f3565b60405180910390fd5b6000828461160791906128e4565b90508091505092915050565b600061161f848461146c565b90507fffffffffffffffffffffffffffffffffffffffffffffffffffffffffffffffff81146116a15781811015611691578281836040517ffb8f41b200000000000000000000000000000000000000000000000000000000815260040161168893929190612a13565b60405180910390fd5b6116a08484848403600061191e565b5b50505050565b600073ffffffffffffffffffffffffffffffffffffffff168373ffffffffffffffffffffffffffffffffffffffff16036117195760006040517f96c6fd1e0000000000000000000000000000000000000000000000000000000081526004016117109190611ea1565b60405180910390fd5b600073ffffffffffffffffffffffffffffffffffffffff168273ffffffffffffffffffffffffffffffffffffffff160361178b5760006040517fec442f050000000000000000000000000000000000000000000000000000000081526004016117829190611ea1565b60405180910390fd5b611796838383611af5565b505050565b6117a58282611d1a565b5050565b60007f000000000000000000000000000000000000000000000000000000000000000073ffffffffffffffffffffffffffffffffffffffff166370a08231306040518263ffffffff1660e01b81526004016118049190611ea1565b602060405180830381865afa158015611821573d6000803e3d6000fd5b505050506040513d601f19601f8201168201806040525081019061184591906121d5565b905060007f000000000000000000000000000000000000000000000000000000000000000073ffffffffffffffffffffffffffffffffffffffff166370a08231306040518263ffffffff1660e01b81526004016118a29190611ea1565b602060405180830381865afa1580156118bf573d6000803e3d6000fd5b505050506040513d601f19601f820116820180604052508101906118e391906121d5565b90508160058190555080600681905550611906818361153b90919063ffffffff16565b6007819055505050565b61191a8282611d9c565b5050565b600073ffffffffffffffffffffffffffffffffffffffff168473ffffffffffffffffffffffffffffffffffffffff16036119905760006040517fe602df050000000000000000000000000000000000000000000000000000000081526004016119879190611ea1565b60405180910390fd5b600073ffffffffffffffffffffffffffffffffffffffff168373ffffffffffffffffffffffffffffffffffffffff1603611a025760006040517f94280d620000000000000000000000000000000000000000000000000000000081526004016119f99190611ea1565b60405180910390fd5b81600160008673ffffffffffffffffffffffffffffffffffffffff1673ffffffffffffffffffffffffffffffffffffffff16815260200190815260200160002060008573ffffffffffffffffffffffffffffffffffffffff1673ffffffffffffffffffffffffffffffffffffffff168152602001908152602001600020819055508015611aef578273ffffffffffffffffffffffffffffffffffffffff168473ffffffffffffffffffffffffffffffffffffffff167f8c5be1e5ebec7d5bd14f71427d1e84f3dd0314c0f7b2291e5b200ac8c7c3b92584604051611ae6919061206e565b60405180910390a35b50505050565b600073ffffffffffffffffffffffffffffffffffffffff168373ffffffffffffffffffffffffffffffffffffffff1603611b47578060026000828254611b3b9190612a4a565b92505081905550611c1a565b60008060008573ffffffffffffffffffffffffffffffffffffffff1673ffffffffffffffffffffffffffffffffffffffff16815260200190815260200160002054905081811015611bd3578381836040517fe450d38c000000000000000000000000000000000000000000000000000000008152600401611bca93929190612a13565b60405180910390fd5b8181036000808673ffffffffffffffffffffffffffffffffffffffff1673ffffffffffffffffffffffffffffffffffffffff16815260200190815260200160002081905550505b600073ffffffffffffffffffffffffffffffffffffffff168273ffffffffffffffffffffffffffffffffffffffff1603611c635780600260008282540392505081905550611cb0565b806000808473ffffffffffffffffffffffffffffffffffffffff1673ffffffffffffffffffffffffffffffffffffffff168152602001908152602001600020600082825401925050819055505b8173ffffffffffffffffffffffffffffffffffffffff168373ffffffffffffffffffffffffffffffffffffffff167fddf252ad1be2c89b69c2b068fc378daa952ba7f163c4a11628f55a4df523b3ef83604051611d0d919061206e565b60405180910390a3505050565b600073ffffffffffffffffffffffffffffffffffffffff168273ffffffffffffffffffffffffffffffffffffffff1603611d8c5760006040517f96c6fd1e000000000000000000000000000000000000000000000000000000008152600401611d839190611ea1565b60405180910390fd5b611d9882600083611af5565b5050565b600073ffffffffffffffffffffffffffffffffffffffff168273ffffffffffffffffffffffffffffffffffffffff1603611e0e5760006040517fec442f05000000000000000000000000000000000000000000000000000000008152600401611e059190611ea1565b60405180910390fd5b611e1a60008383611af5565b5050565b6000819050919050565b611e3181611e1e565b82525050565b6000604082019050611e4c6000830185611e28565b611e596020830184611e28565b9392505050565b600073ffffffffffffffffffffffffffffffffffffffff82169050919050565b6000611e8b82611e60565b9050919050565b611e9b81611e80565b82525050565b6000602082019050611eb66000830184611e92565b92915050565b600081519050919050565b600082825260208201905092915050565b60005b83811015611ef6578082015181840152602081019050611edb565b60008484015250505050565b6000601f19601f8301169050919050565b6000611f1e82611ebc565b611f288185611ec7565b9350611f38818560208601611ed8565b611f4181611f02565b840191505092915050565b60006020820190508181036000830152611f668184611f13565b905092915050565b600080fd5b611f7c81611e80565b8114611f8757600080fd5b50565b600081359050611f9981611f73565b92915050565b611fa881611e1e565b8114611fb357600080fd5b50565b600081359050611fc581611f9f565b92915050565b60008060408385031215611fe257611fe1611f6e565b5b6000611ff085828601611f8a565b925050602061200185828601611fb6565b9150509250929050565b60008115159050919050565b6120208161200b565b82525050565b600060208201905061203b6000830184612017565b92915050565b60006020828403121561205757612056611f6e565b5b600061206584828501611fb6565b91505092915050565b60006020820190506120836000830184611e28565b92915050565b6000806000606084860312156120a2576120a1611f6e565b5b60006120b086828701611f8a565b93505060206120c186828701611f8a565b92505060406120d286828701611fb6565b9150509250925092565b600060ff82169050919050565b6120f2816120dc565b82525050565b600060208201905061210d60008301846120e9565b92915050565b6000806040838503121561212a57612129611f6e565b5b600061213885828601611fb6565b925050602061214985828601611fb6565b9150509250929050565b60006020828403121561216957612168611f6e565b5b600061217784828501611f8a565b91505092915050565b6000806040838503121561219757612196611f6e565b5b60006121a585828601611f8a565b92505060206121b685828601611f8a565b9150509250929050565b6000815190506121cf81611f9f565b92915050565b6000602082840312156121eb576121ea611f6e565b5b60006121f9848285016121c0565b91505092915050565b7f4e487b7100000000000000000000000000000000000000000000000000000000600052602260045260246000fd5b6000600282049050600182168061224957607f821691505b60208210810361225c5761225b612202565b5b50919050565b7f576974686472617720616d6f756e74732063616e277420626520302e00000000600082015250565b6000612298601c83611ec7565b91506122a382612262565b602082019050919050565b600060208201905081810360008301526122c78161228b565b9050919050565b7f546f6b656e20776974686472617720616d6f756e747320617265206e6f74206f60008201527f6620657175616c2076616c75652e000000000000000000000000000000000000602082015250565b600061232a602e83611ec7565b9150612335826122ce565b604082019050919050565b600060208201905081810360008301526123598161231d565b9050919050565b7f5573657220646f65736e2774206f776e20656e6f756768206c6971756964697460008201527f7920706f6f6c2066756e64732e00000000000000000000000000000000000000602082015250565b60006123bc602d83611ec7565b91506123c782612360565b604082019050919050565b600060208201905081810360008301526123eb816123af565b9050919050565b60006040820190506124076000830185611e92565b6124146020830184611e28565b9392505050565b6124248161200b565b811461242f57600080fd5b50565b6000815190506124418161241b565b92915050565b60006020828403121561245d5761245c611f6e565b5b600061246b84828501612432565b91505092915050565b7f4465706f73697420616d6f756e74732063616e277420626520302e0000000000600082015250565b60006124aa601b83611ec7565b91506124b582612474565b602082019050919050565b600060208201905081810360008301526124d98161249d565b9050919050565b60006060820190506124f56000830186611e92565b6125026020830185611e92565b61250f6040830184611e28565b949350505050565b7f4e487b7100000000000000000000000000000000000000000000000000000000600052601160045260246000fd5b60008160011c9050919050565b6000808291508390505b600185111561259d5780860481111561257957612578612517565b5b60018516156125885780820291505b808102905061259685612546565b945061255d565b94509492505050565b6000826125b65760019050612672565b816125c45760009050612672565b81600181146125da57600281146125e457612613565b6001915050612672565b60ff8411156125f6576125f5612517565b5b8360020a91508482111561260d5761260c612517565b5b50612672565b5060208310610133831016604e8410600b84101617156126485782820a90508381111561264357612642612517565b5b612672565b6126558484846001612553565b9250905081840481111561266c5761266b612517565b5b81810290505b9392505050565b600061268482611e1e565b915061268f836120dc565b92506126bc7fffffffffffffffffffffffffffffffffffffffffffffffffffffffffffffffff84846125a6565b905092915050565b60006126cf82611e1e565b91506126da83611e1e565b92508282026126e881611e1e565b915082820484148315176126ff576126fe612517565b5b5092915050565b7f546f6b656e20616d6f756e74732070726f766964656420617265206e6f74206f60008201527f6620657175616c2076616c75652e000000000000000000000000000000000000602082015250565b6000612762602e83611ec7565b915061276d82612706565b604082019050919050565b6000602082019050818103600083015261279181612755565b9050919050565b7f53776170206661696c65642e0000000000000000000000000000000000000000600082015250565b60006127ce600c83611ec7565b91506127d982612798565b602082019050919050565b600060208201905081810360008301526127fd816127c1565b9050919050565b7f4e6f7420656e6f7567682072657365727665732e000000000000000000000000600082015250565b600061283a601483611ec7565b915061284582612804565b602082019050919050565b600060208201905081810360008301526128698161282d565b9050919050565b60006080820190506128856000830187611e92565b6128926020830186611e92565b61289f6040830185611e28565b6128ac6060830184611e28565b95945050505050565b7f4e487b7100000000000000000000000000000000000000000000000000000000600052601260045260246000fd5b60006128ef82611e1e565b91506128fa83611e1e565b92508261290a576129096128b5565b5b828204905092915050565b7f536166654d6174683a206d756c7469706c69636174696f6e206f766572666c6f60008201527f7700000000000000000000000000000000000000000000000000000000000000602082015250565b6000612971602183611ec7565b915061297c82612915565b604082019050919050565b600060208201905081810360008301526129a081612964565b9050919050565b7f536166654d6174683a206469766973696f6e206279207a65726f000000000000600082015250565b60006129dd601a83611ec7565b91506129e8826129a7565b602082019050919050565b60006020820190508181036000830152612a0c816129d0565b9050919050565b6000606082019050612a286000830186611e92565b612a356020830185611e28565b612a426040830184611e28565b949350505050565b6000612a5582611e1e565b9150612a6083611e1e565b9250828201905080821115612a7857612a77612517565b5b9291505056fea2646970667358221220098e5e6d1b17ea1bccff3d47e95834fb95e8e15d692e06b439f464fd3766d98564736f6c63430008140033",
  "linkReferences": {},
  "deployedLinkReferences": {}
}